:02000002B0004C
:1040000000400B009C510B00000006000C00050254
:084010000401A30F00000000F1
:04401800C44E0B0087
:10401C0009480A49884208B505D0094A824202D0AB
:10402C00121A00F097FE0748074A0021121A00F0F6
:10403C009FFE014808BD00BF4CE6032008510B0051
:10404C00B8E60320B8E60320EDE7032070B5074E71
:10405C00074C00F07BFDA41BA4080025AC4200D14A
:10406C0070BD56F8043B98470135F7E7BC500B0080
:10407C00DC500B0000F013B808B500F02BF8BDE8CD
:10408C00084000F01BBD00F09BB900F0A1B900780E
:10409C00B0FA80F04009704701230370704708B5EF
:1040AC000021132000F0C2FD0021122000F0BEFD03
:1040BC000021112000F0BAFD0021102000F0B6FD07
:1040CC0000210F2000F0B2FDBDE8084001210620C0
:1040DC0000F0ACBD7047000008B5024B1B685B6C70
:1040EC00019308BD4802030008B5024B1B685B68CE
:1040FC00019308BD1802030008B5024B1B685B69ED
:10410C00019308BD1802030008B5024B1B689B689D
:10411C00019308BD2C02030008B5024B1B681B6AF7
:10412C00019308BD2802030008B5024B1B685B6AAB
:10413C00019308BD2802030008B5024B1B689B6A5B
:10414C00019308BD2802030008B5024B1B68DB6A0B
:10415C00019308BD2802030008B5024B1B681B6BBA
:10416C00019308BD2802030008B5024B1B685B6B6A
:10417C00019308BD2802030008B5024B1B681B6C99
:10418C00019308BD2802030008B5024B1B685B694C
:10419C00019308BD6402030008B5024B1B689B68C1
:1041AC00019308BD6802030008B5024B1B68DB686D
:1041BC00019308BD6802030008B5024B1B68DB695C
:1041CC00019308BD3002030008B5024B1B681B6A43
:1041DC00019308BD3002030008B5024B1B68DB6875
:1041EC00019308BD3C02030008B5024B1B681B6918
:1041FC00019308BD3C02030008B5024B1B685B69C8
:10420C00019308BD3C02030008B5024B1B689B6977
:10421C00019308BD3C02030008B5024B1B68DB6927
:10422C00019308BD3C02030008B5024B1B681B6AD6
:10423C00019308BD3C02030008B5024B1B689B6A46
:10424C00019308BD3C02030008B5024B1B681B6CB4
:10425C00019308BD3C02030008B5024B1B681B68A8
:10426C00019308BD4C02030008B5024B1B681B6987
:10427C00019308BD4C02030008B5024B1B685B6937
:10428C00019308BD4C02030008B5024B1B689B69E7
:10429C00019308BD4C02030008B5024B1B68DB6997
:1042AC00019308BD4C02030008B5024B1B681B6A46
:1042BC00019308BD4C02030008B5024B1B685B68F8
:1042CC00019308BD2002030008B5034B1B68D3F80B
:1042DC008830019308BD00002002030008B5034B91
:1042EC001B68D3F89430019308BD00002002030032
:1042FC0008B5024B1B68DB6B019308BD440203003D
:10430C0008B5024B1B685B68019308BD40020300B3
:10431C0008B5024B1B689B68019308BD4002030063
:10432C0008B5024B1B68DB68019308BD4002030013
:10433C0008B5024B1B681B69019308BD40020300C2
:10434C0008B5024B1B685B69019308BD4002030072
:10435C0008B5024B1B689B69019308BD4002030022
:10436C0008B5024B1B68DB69019308BD40020300D2
:10437C0008B5024B1B681B6A019308BD4002030081
:10438C0008B5024B1B681B6B019308BD4002030070
:10439C0008B5024B1B685B6B019308BD4002030020
:1043AC0008B5024B1B681B6C019308BD400203004F
:1043BC0008B5024B1B685B6C019308BD40020300FF
:1043CC0008B5024B1B681B68019308BD1C02030057
:1043DC0008B5024B1B685B68019308BD1C02030007
:1043EC0008B5024B1B681B6C019308BD1C02030033
:1043FC0008B5024B1B685B6C019308BD1C020300E3
:10440C00024800230360FFF767BE00BFB8E6032035
:10441C00002240681146FFF7ABBF002240681146EE
:10442C00FFF7B6BF40680022FFF7AABF4068002222
:10443C0081F00101FFF794BF002340681A4619462A
:10444C00FFF786BF002340681A461946FFF778BF6E
:10445C00002240681146FFF76BBF002240681146EE
:10446C00FFF756BF406800220221FFF759BF002317
:10447C0040681A46FFF744BF024B03225A60024AB7
:10448C001A607047BCE60320E04E0B007047F8B58D
:10449C00064615460C468F18BC4206D0336814F8F5
:1044AC00011B9B6830469847F6E72846F8BD007C10
:1044BC000022FFF731BE007C0021FFF735BE007CE7
:1044CC000021FFF739BE007C0021FFF73DBE007CC8
:1044DC000021FFF741BE10B514210446FFF7D5FDAE
:1044EC00204610BD10B54FF47A73044608460021DF
:1044FC00C4E90113034B236020741146FFF73CFE03
:10450C00204610BD1C4F0B00704710B518210446F7
:10451C00FFF7BBFD204610BDF0B5037D062B8DB01B
:10452C000E4600F104074FF0000412D000F108050C
:10453C0015F8011D0A22304600F043F9AF4204443D
:10454C0019D0002CF4D02E21304600F037F9044459
:10455C00EEE72F236A4639460A208DF80040FFF714
:10456C0013FE684600F03AFC33680246DB68694685
:10457C0030469847044620460DB0F0BD10B5054BAB
:10458C000446112240F8043B002100F0F1FB2046C8
:10459C0010BD00BF444F0B000346074A10B543F84B
:1045AC00042B01F1100251F8044B43F8044B9142D7
:1045BC00F9D10A781A7010BD444F0B0010B59DF854
:1045CC00084044EA032343EA024242EA016104231D
:1045DC004160037510BD000007B5064B0360CB7836
:1045EC0000938B784A780978FFF7E8FF03B05DF801
:1045FC0004FB00BF444F0B00014B024A1A6070478A
:10460C00C4E60320504F0B00002340681A46FFF706
:10461C0077BE406800220221FFF782BE002240686C
:10462C001146FFF775BE002240681146FFF780BEA9
:10463C00002340681A461946FFF782BE00234068E3
:10464C001A461946FFF784BE40680021FFF7A8BE42
:10465C0040680021FFF7ACBE4068002281F00101E8
:10466C00FFF77EBE40680022FFF78ABE002240683A
:10467C001146FFF78DBE002240681146FFF778BE49
:10468C002DE9F04395B014460D460746FFF776FF2B
:10469C0000211C220DA8009100F06AFB40230C9312
:1046AC0020466B460CAA0021FFF77EFD044600282D
:1046BC004BD1024601216868FFF73AFE0221804681
:1046CC0022466868FFF734FE009E81462146002E84
:1046DC003BD0002939D17368022B03D00A2B11D09F
:1046EC00F669F4E7B8F1000FFAD0716906A8043145
:1046FC0007ADFFF771FF0FCD3C1D0FC42B68237066
:10470C004146EDE7B9F1000FEAD07469102201A817
:10471C0000F02EFB06238DF8143001AD04F10803D4
:10472C001834186859682A4603C20833A342154640
:10473C00F7D101A906A807ADFFF72EFF0FCD3C1D41
:10474C000FC42B6823704946CAE70098FFF724FD75
:10475C00384615B0BDE8F083024B034A1A600022BC
:10476C005A607047C8E603205C4F0B00F8B506464C
:10477C000D468F180024BD420CD0336815F8011B70
:10478C009B6830469847031E01DB1C44F3E7002C62
:10479C0008BF1C462046F8BD13B50446084659B15F
:1047AC00019100F01BFB23680199DB68024620464F
:1047BC0002B0BDE81040184702B010BD03689B68FA
:1047CC00184730B58BB00023012A8DF8243098BFE0
:1047DC000A2209AC0D46B1FBF2F101FB125303F0B6
:1047EC00FF03092B94BF30333733DBB2AA4204F8F2
:1047FC00013DEFD92146FFF7CFFF0BB030BD0000D4
:10480C00014B00229A607047D0E6032010B5044695
:10481C0008462170FFF7D0FC00236360204610BDD2
:10482C00054B02221A60054B054A9A600020C3E929
:10483C000000FFF741BD00BFECE60320E0E60320DB
:10484C000000FFFF024B1A68024B1A60704700BF52
:10485C004CE60320F0E6032070474174704708B51E
:10486C00007CFFF7E9FC20EAE07008BD08B5007C8D
:10487C00FFF7BAFC20EAE07008BD08B5007CFFF732
:10488C00C3FC40EAE07008BD08B5007CFFF7B4FC3F
:10489C0040EAE07008BD007CFFF7BEBC37B5457C34
:1048AC0004462DB1207C03B0BDE83040FFF794BC2A
:1048BC00007C0191FFF7C0FC00280199F2DC28462E
:1048CC0003B030BD10B514210446FFF7DEFB2046C3
:1048DC0010BD000010B54FF47A730446084611461B
:1048EC000022C4E90123044B236001232074637468
:1048FC00FFF7AAFC204610BDB44F0B004174704763
:10490C007047704708B50021007CFFF7BDFC40EAFA
:10491C00E07008BD08B50121007CFFF7B5FC40EA4A
:10492C00E07008BD08B5007CFFF7A6FC20EAE0703B
:10493C0008BD08B5007CFFF797FC20EAE07008BDC5
:10494C0013B50446007C0191FFF796FC00280199F1
:10495C0001DC607C20B1207CFFF79EFC20EAE0703B
:10496C0002B010BD007CFFF79FBC10B514210446AB
:10497C00FFF78BFB204610BD10B54FF47A7304463D
:10498C0008460021C4E90113044B23600123207461
:10499C0063741146FFF760FC204610BDE44F0B001A
:1049AC0010B514220446002100F0E2F9204610BD97
:1049BC0010B50F4C88B003A8FFF7F2FF2178BFF3B6
:1049CC005B8F11F001010FD120460191FFF75FFBC6
:1049DC00019948B103AA0748FFF7CEFF2046FFF71D
:1049EC005BFB054800F0B0F9024808B010BD00BFF1
:1049FC00F4E60320F8E603200D490B000022406882
:104A0C001146FFF795BC002240681146FFF7B0BC79
:104A1C00002240681146FFF7BBBC40680022FFF73C
:104A2C00AFBC4068002281F00101FFF799BC002364
:104A3C0040681A461946FFF78BBC002340681A469B
:104A4C001946FFF77DBC002240681146FFF760BC99
:104A5C00406800220221FFF763BC002340681A461D
:104A6C00FFF74EBC024B04225A60024A1A60704790
:104A7C000CE7032014500B00014B1860704700BF6B
:104A8C0050E6032008B50B4B43B1FFF791FF0368C9
:104A9C001B699847002801DDAFF30080064B43B13A
:104AAC0000F02CF903681B699847002801DDAFF36F
:104ABC00008008BD000000000000000008B5FFF7F2
:104ACC00E1FFFFF719FB014B186008BD28E7032035
:104ADC000548064A064908B5121A00F03BF9054B81
:104AEC00054A1A6008BD00BF00F4032004F403203B
:104AFC0004510B0000F403201E1C279A07B5002359
:104B0C0000931A466FF07701FFF7E8FB03B05DF8EE
:104B1C0004FB000007B543880A2B08D0502B0BD19F
:104B2C00094B1B684BB103B05DF804EB1847FFF75A
:104B3C00E5FF03B05DF804FB002300931A466FF009
:104B4C007701FFF7CBFBF4E718E7032010B5124809
:104B5C000021FFF74DFC114B1A68114B9A42114B77
:104B6C000CBF012200221A7001D0FFF7B1FFFFF732
:104B7C00BBFA044600F004F90B4B13B12046AFF31B
:104B8C00008000210848FFF7B3FBBDE81040074840
:104B9C000021FFF799BB00BF854A0B0000F40320EE
:104BAC001E1C279A14E7032000000000214B0B0069
:104BBC00232813B502D9002002B010BDA0F10B03BD
:104BCC00022B1AD8174C2178BFF35B8F11F001011F
:104BDC000BD120460191FFF75AFA019928B11248DE
:104BEC00FFF714FE2046FFF757FA0F4B1878FFF724
:104BFC00EBFA0028DFD10120DEE7012809D800F00C
:104C0C003DF80021007CFFF7AFFA80F00100C0B244
:104C1C00D2E709380128EED800F070F8007CFFF7D5
:104C2C0003FBF2E71CE7032020E70320232838B519
:104C3C0004460D460AD8FF2908D0FFF7B9FF28B162
:104C4C0029462046BDE83840FFF75EBA38BD7047AC
:104C5C0038B5202514230446036085600561064998
:104C6C00284600F06FF804496060284600F06AF8A6
:104C7C00E060204638BD00BF48500B0030B50E4DEB
:104C8C002978BFF35B8F11F0010487B011D128464E
:104C9C00FFF7FDF968B101A8FFF7DAFF01AA214679
:104CAC000648FFF71FFC2846FFF7F6F9044800F00A
:104CBC004BF8024807B030BD2CE7032030E7032047
:104CCC005B4C0B007047000038B5044614252A468F
:104CDC00002100F04DF82580402507492581284604
:104CEC00258200F02FF804496060284600F02AF86D
:104CFC00E060204638BD00BF48500B0030B50E4D6B
:104D0C002978BFF35B8F11F0010487B011D12846CD
:104D1C00FFF7BDF968B101A8FFF7D6FF01AA21463C
:104D2C000648FFF7D7FD2846FFF7B6F9044800F010
:104D3C000BF8024807B030BD44E7032048E70320D6
:104D4C00D14C0B00FFF79FB9002301461A461846B9
:104D5C0000F04CB80A44914200F1FF3300D1704787
:104D6C0010B511F8014B03F8014F9142F9D110BD68
:104D7C0002440346934200D1704703F8011BF9E744
:104D8C0038B5104B1D68AB6B0446B3B91820FFF750
:104D9C0017FB0246A86320B90B4B0C484221FFF7C6
:104DAC001FFB0B490B4BC0E900130B4B83600B2310
:104DBC00838100210120C2E90401AB6B00221C613C
:104DCC005A6138BD50E6032049500B0060500B006F
:104DDC000E33CDAB34126DE6ECDE0500034613F852
:104DEC00012B002AFBD1181A013870472DE9F84322
:104DFC00DFF8B8800646D8F800001F460D469146ED
:104E0C0000F056F8254B1C6834B9254C1C60254B1A
:104E1C0013B11B68C4F8883063681F2B07DDD8F802
:104E2C00000000F047F84FF0FF30BDE8F8834EB3B8
:104E3C00D4F8880088B91C4B23B9D8F8000000F0CE
:104E4C0038F8F0E74FF48470FFF7BAFA0028F4D082
:104E5C000023C0E94033C4F88800636840F823900D
:104E6C0001229A4000EB8301D0F800311343C0F8C3
:104E7C000031022EC1F8807002BFD0F80431134308
:104E8C00C0F804316368D8F800005A1C0233626021
:104E9C0044F8235000F00EF80020C6E7E8E70320A2
:104EAC005CE7032000000000CD430B00B4E60320B8
:104EBC0070477047704700001D400B0059400B00B5
:104ECC0081400B0085400B0000000000000000003A
:104EDC00000000007B440B0071440B0067440B0086
:104EEC005D440B0051440B0045440B0055460B0030
:104EFC005D460B0039440B0031440B0027440B007A
:104F0C001D440B008D460B0000000000000000004B
:104F1C0099440B00E3440B00BB440B009B440B0077
:104F2C00C3440B00CB440B00D3440B00DB440B00FD
:104F3C00000000000000000025450B0015450B008B
:104F4C0017450B00617070000000000000000000AD
:104F5C0015460B001F460B0029460B0033460B0071
:104F6C003D460B0049460B0055460B005D460B00B9
:104F7C0065460B0071460B0079460B0083460B000F
:104F8C008D460B0025592D256D2D25645425483A49
:104F9C00254D3A2553257A0061736374696D65005C
:104FAC00000000000000000065480B00D1480B0019
:104FBC00A9480B0079470B0079480B0095480B006A
:104FCC0087480B00A3480B0067480B006B480B008D
:104FDC0000000000000000000F490B0077490B0097
:104FEC004D490B0079470B003F490B0011490B0051
:104FFC0021490B0071490B0031490B0009490B0089
:10500C000000000000000000674A0B005D4A0B0026
:10501C00534A0B00094A0B00474A0B003B4A0B0052
:10502C0055460B005D460B002F4A0B00274A0B0020
:10503C001D4A0B00134A0B008D460B0000524545D0
:10504C004E54206D616C6C6F632073756363656582
:10505C00646564002F746D702F6A656E6B696E7376
:10506C002D4743432D31302D706970656C696E6529
:10507C002D34385F32303230313132345F313630AA
:10508C00363138303633392F7372632F6E65776C47
:10509C0069622F6E65776C69622F6C6962632F731E
:1050AC0074646C69622F72616E642E630000000080
:1050BC000D440B0085440B0005460B0065470B00A7
:1050CC000D480B002D480B0051480B00714A0B008A
:0450DC0000000000D0
:1050E000040000001400000003000000474E5500BB
:1050F0003C104350B616F99DF4AB899D03D3036869
:0451000052DDE16833
:0451040000000000A7
:10510800A44F0B0054E6032000000000000000003C
:105118000000000000000000000000000000000087
:105128000000000000000000000000000000000077
:105138000000000000000000000000000000000067
:105148000000000000000000000000000000000057
:105158000000000000000000000000000000000047
:0C5168000000000000000000ECE7032045
:10517400FFFFFFFF00000102030405060708090AF8
:105184000B0C0D0E0F101112131415161718191AF3
:085194001B1C1D1E1F2028003A
:04519C0078563412FB
:04000003B000401CED
:00000001FF
