:02000002B0004C
:1040000000400B0014760B00000006000C000502B7
:084010000401A30F00000000F1
:04401800EC700B003D
:1040200009480A49884208B505D0094A824202D0A7
:10403000121A02F081FF0748074A0021121A02F003
:1040400089FF014808BD00BF9CE5032080750B0077
:1040500008E6032008E60320EDE7032070B5074ECD
:10406000074C02F089F8A41BA4080025AC4200D13B
:1040700070BD56F8043B98470135F7E724750B00EF
:1040800048750B0000F05EBA08B500F011FABDE803
:10409000084002F029B801F06DB801F06BB801F0EA
:1040A00071B80078B0FA80F04009704701230370BE
:1040B0007047000013B5054B1B788DF800303C238A
:1040C000044601F02FFA204602B010BD18E6032086
:1040D0001FB580B2CDE9022102F0E8F86423009315
:1040E000DDE90221002301F085F805B05DF804FB4D
:1040F00010B540F6FF7200211320FFF7E9FF02F030
:10410000BFFA334B334CC3E9000140F6FF72002184
:104110001220FFF7DDFF02F0B3FA2F4B40F6FF72DB
:10412000C3E9000100211120FFF7D2FF02F0A8FA35
:104130002A4B40F6FF72C3E9000100211020FFF76F
:10414000C7FF02F09DFA264B40F6FF72C3E900015B
:1041500000210F20FFF7BCFF02F092FA214BC3E9C8
:104160000001204600F018FB10EE100A02F09AFA47
:104170001D4BC3E90001204600F020FC10EE100AA0
:1041800002F090FA194BC3E90001204600F046FB0B
:1041900002F066FA164C174BC3E90001204600F006
:1041A000D5FD02F05DFA144BC3E90001204600F092
:1041B000C2FD02F055FA114BC3E90001204600F0A0
:1041C000ABFD02F04DFA0E4BC3E90001002010BD1B
:1041D00088E6032030E6032090E6032098E60320DB
:1041E000A0E60320A8E60320B0E6032020E6032093
:1041F00078E6032028E6032070E6032010E603207B
:1042000008E6032038B5046805467CB16368013BC5
:1042100063605BB9236820469B689847A368013BAD
:10422000A3601BB923682046DB689847284638BD41
:1042300037B51B49054601F0B6FD044698B101218A
:10424000062002F01AF81749154A6846FFF732FFB0
:1042500001A8FFF7D7FF01F0C1FE134901F0F1FCFF
:10426000002003B030BD1149284601F09CFD78B113
:104270002146062002F001F80A49094A6846FFF77C
:1042800019FF01A8FFF7BEFF01F0A8FE0849E5E706
:1042900001F0A4FE074901F0D4FC4FF0FF30E0E745
:1042A00000710B0005710B001A710B0035710B00CA
:1042B0003B710B0057710B0010B586B0654CFFF7D2
:1042C00017FF654B2146D3E9002302A801F07EFDCC
:1042D000029A62496846FFF7EDFE01A8FFF792FFD8
:1042E00002A801F0E7FC5E4B2146D3E9002302A8B7
:1042F00001F06CFD029A5B496846FFF7DBFE01A8FE
:10430000FFF780FF02A801F0D5FC574B2146D3E907
:10431000002302A801F05AFD029A54496846FFF7AB
:10432000C9FE01A8FFF76EFF02A801F0C3FC504BC5
:104330002146D3E9002302A801F048FD029A4D4925
:104340006846FFF7B7FE01A8FFF75CFF02A801F07F
:10435000B1FC494B2146D3E9002302A801F036FD08
:10436000029A46496846FFF7A5FE01A8FFF74AFFF3
:1043700002A801F09FFC424B2146D3E9002302A88A
:1043800001F024FD029A3F496846FFF793FE01A819
:10439000FFF738FF02A801F08DFC3B4B2146D3E923
:1043A000002302A801F012FD029A38496846FFF77F
:1043B00081FE01A8FFF726FF02A801F07BFC344B29
:1043C0002146D3E9002302A801F000FD029A3149F9
:1043D0006846FFF76FFE01A8FFF714FF02A801F07F
:1043E00069FC2D4B2146D3E9002302A801F0EEFC25
:1043F000029A2A496846FFF75DFE01A8FFF702FF0F
:1044000002A801F057FC264B2146D3E9002302A85D
:1044100001F0DCFC029A23496846FFF74BFE01A835
:10442000FFF7F0FE02A801F045FC1F4B2146D3E93F
:10443000002302A801F0CAFC029A1C496846FFF753
:1044400039FE01A8FFF7DEFE02A801F033FC0020D0
:1044500006B010BD81710B0088E6032086710B0049
:1044600090E6032090710B0098E603209A710B00F0
:10447000A0E60320A4710B00A8E60320AE710B0098
:10448000B0E60320B8710B0020E60320C4710B00D6
:1044900028E60320CD710B0070E60320E1710B00CC
:1044A00010E60320E6710B0008E60320EB710B0019
:1044B00070B51348134E144D2DED028B00F06CF9BE
:1044C0000F48B0EE408A00F079FA1048F0EE400A4A
:1044D000B0EE480A00F0E0FBFFF7EEFE00F05CFCF7
:1044E000044600F059FC001BB04205D800F054FC13
:1044F000286000F0BFFDF4E7BDEC028B70BD00BF8B
:1045000030E60320DF93040028E7032078E6032049
:1045100008B5094B00221A7001F0F6FE762201461A
:10452000064800F01DFB01F0EFFEBDE80840014623
:104530005322034800F016BC18E6032030E603209F
:1045400078E6032008B501F049FD4FF4E13101F0B0
:1045500039FD01F043FD284901F073FB00211320D0
:1045600001F07AFE0021122001F076FE00211120D8
:1045700001F072FE0021102001F06EFE00210F20DC
:1045800001F06AFE0620012101F066FE1B4800F0E2
:10459000B7FA20BB01F022FD194901F052FB47F2A6
:1045A000305000F033FE01F049FC164800F067FB84
:1045B000D8B901F013FD144901F043FB47F2305024
:1045C00000F024FE01F03AFC0E48022100F018FB36
:1045D000BDE808400D4A0E490E4800F0ACBE01F09F
:1045E000FDFC0D4901F02DFBDFE701F0F7FC0B4965
:1045F00001F027FBE8E700BFEF710B0030E6032076
:104600003C720B0078E6032097720B00F2720B00ED
:1046100031420B000B530B0075720B00D0720B0074
:10462000F8B504461E4602230371406B15460F463B
:1046300001F060F994F83810606B01F08DF9606B4F
:10464000036839469B6898472E44B542606B05D095
:10465000036815F8011B9B689847F6E701F084F999
:1046600000B92071F8BDF8B504461E460223037157
:10467000406B0F46154601F03DF994F83810606B19
:1046800001F06AF9606B036839469B689847606B74
:1046900001F06AF988B9F2B294F83810606B01F051
:1046A00058F92E44B54206D0606B03685B699847A1
:1046B00005F8010BF6E700232371F8BD13B5B62307
:1046C0008DF8073003680DF107021C68E021012313
:1046D000A047642000F09AFD02B010BD38B5024634
:1046E000044652F80C3B88215D681A23A8472246ED
:1046F000A12152F8263B20465D680123A8472246A7
:10470000E12152F8283B20465D680223A847224653
:10471000E32152F82A3B20465D680123A847224640
:10472000E42152F82C3B20465D680223A84722462C
:10473000E52152F82E3B20465D680223A847224619
:10474000E72152F8303B20465D680123A847A28D3F
:1047500094F92D30120103F00F0302F47F6213432A
:10476000A385B4F92E30C3F30B13E38538BD13B51D
:10477000036801AA5C68FA210323A0479DF805306D
:104780009DF804001B0143EA00339DF8060043EA4C
:10479000101002B010BD000010B50446FFF7E7FF8F
:1047A0002379FBB9A1899FED117A4B00C1EB20124F
:1047B000C3EBE001B4F90E30594302FB02F3B4F944
:1047C00010201B1353439B1303EBE123A36003EB64
:1047D000830380331B1207EE903AF8EEE77A87EEF8
:1047E000870A10BD9FED020AFBE700BF0000C84228
:1047F0000000000013B5036801AA5C68F7210323D9
:10480000A0479DF805309DF804001B0143EA0033E2
:104810009DF8060043EA101002B010BD2DE9F843E0
:104820000546FFF7B9FF2846FFF7E4FF297900297D
:1048300040F0B280AE68B5F914304FEAE67CB6F5C8
:10484000FA364CF1FF3CA6FB064806FB0CF708EBDA
:10485000470803FB0CF2DF1706FB0722A3FB063712
:104860003A4412031F0342EA1352B5F916304FEAD5
:10487000E37903FB08FE04FB09EEA3FB0439CE44F5
:104880001B0A43EA0E63DB1942EB2E22B5F812E055
:1048900002F50042A3FB0E370EFB0277FB177A10DE
:1048A00053EA67077AD0B5F91CE00EFB08F74FEA28
:1048B000EE7904FB0977AEFB04E42744B5F91A400E
:1048C0004FEAE47804FB0CFC06FB08CCA4FB06468C
:1048D0006644760446EAD436640414EB0E04C0F54C
:1048E000801047EB060600F0004CB5F91870091966
:1048F0004CEA500CC007401A06EBC7066CEB060CDE
:1049000040F63546A0FB060106FB0C1102F054F9F7
:10491000B5F92220B5F920404F13430B43EAC143B8
:10492000864602FB07F6D01703FB0066A2FB0320B6
:10493000304402FB07F603FB0066A2FB03231E4480
:10494000530E43EAC61313EB0E0341EB6666E01702
:10495000614300FB0E10A4FB0E4C6044E40C44EADF
:1049600040341B194FEA1324B5F91E3046EBE041E1
:10497000D817000140EA137044EA01641B011B19B7
:1049800040EB2120002802DAFF3340F100001B0A2F
:1049900043EA0060BDE8F8830020FBE70846F9E73A
:1049A00013B5036801AA5C68FD210223A047BDF886
:1049B000040040BA80B202B010BD000038B5044611
:1049C000FFF7EAFE2046FFF7EBFF2379C3BBA168A0
:1049D000B4F92E20A1F59635B4F92C100905C1EBD8
:1049E000803305FB123303F58043DA1394F82A3041
:1049F00094F930106B43DB126943891203F50043CD
:104A00004B439B12B4F9281003F500134B4303F5F5
:104A100000539B135343DA1394F826105243D211D8
:104A20004A43A3EB221323EAE373B3F1C85FA8BFA1
:104A30004FF0C8531B1300EE103ABAEECB0A38BD44
:104A40009FED010AFBE700BF0000000013B50368FB
:104A50000DF107025C680123A0479DF8070002B032
:104A600010BD2DE9F3411D4603681746D3F80480B5
:104A70000DF10702012304460E46C0479DF80710BA
:104A800021EA07031D4323688DF807501D680DF1C7
:104A90000702012331462046A84702B0BDE8F08155
:104AA00001F003030322F421FFF7DBBF4FF0000303
:104AB00061F34713DBB2E022F421FFF7D2BF4FF0DE
:104AC000000361F38403DBB21C22F421FFF7C9BFAA
:104AD00001F007030722F221FFF7C3BF4FF00003E5
:104AE00061F38403DBB21C22F521FFF7BABF4FF05C
:104AF000000361F34713DBB2E022F521FFF7B1BFFA
:104B000038B5D0210446FFF7A1FF602825D12579CB
:104B10001DBB2046FFF7D2FD4FF4967000F076FBE8
:104B20002046FFF7DBFD04212046FFF7C8FF0421E4
:104B30002046FFF7BBFF04212046FFF7C9FF2946A7
:104B40002046FFF7CBFF02212046FFF7D0FF0321CD
:104B50002046FFF7A5FF207938BD02232371FAE72D
:104B600010B5034C0460416380F8382010BD00BFCD
:104B700008730B00F8B505460F46017B80681446A4
:104B80001E4600F0E9FEA868036839469B6898470E
:104B90002644B442A86805D0036814F8011B9B683A
:104BA0009847F6E7BDE8F84000F0DEBEF8B50446E9
:104BB0000F46017B806815461E4600F0CDFEA068BA
:104BC000036839469B689847A06800F0CDFEA0B9FD
:104BD000F2B2217BA06800F0BCFE6E1EC5F101059B
:104BE000A06803681B69AF19984738B1A0680368CB
:104BF0005B69984706F8010FF2E700273846F8BDD1
:104C000013B503688DF807105C680DF107020123E6
:104C10001021A047142000F0F9FA02B010BD13B51E
:104C2000036841F002015C688DF8071001230DF163
:104C300007021121A047142000F0E8FA02B010BDCD
:104C400037B5036801AA9D68002102230446A847DE
:104C500078B1BDF80430B3F5B07F0DD10221204604
:104C6000FFF7CEFF20460021FFF7D9FF002003B059
:104C700030BD4FF0FF30FAE76FF00100F7E710B5F5
:104C80000446806800F036FE2046BDE81040FFF77D
:104C9000D7BF00000000000030B52DED028B0446A8
:104CA00083B010EE100AB0EE608A01F0FBFC18A38E
:104CB000D3E9002301F098FB134B002201F04AFDD9
:104CC00001F05AFFDFED110A28EE208A82B2BCEE15
:104CD000C88A8DF8042018EE103A9BB28DF8063081
:104CE0001B0A8DF807302368120A5D688DF80520CD
:104CF00004230DEB030213212046A84703B0BDECAB
:104D0000028B30BDAFF30080000050400000004433
:104D1000666666666612714013B500238DF807302B
:104D200003680DF107029C6821210123A0479DF82B
:104D3000070002B010BD13B5036801AA9C682221C8
:104D40000223A047BDF8040002B010BD13B50368EC
:104D500001AA9C6824210223A047BDF8040002B0E8
:104D600010BD000010B500244471024C04600273B1
:104D7000816010BD18730B0008B5024B1B685B6C9B
:104D8000019308BD4802030008B5024B1B685B682D
:104D9000019308BD1802030008B5024B1B685B694C
:104DA000019308BD1802030008B5024B1B685B683D
:104DB000019308BD2C02030008B5024B1B689B68D9
:104DC000019308BD2C02030008B5024B1B68DB6889
:104DD000019308BD2C02030008B5024B1B681B6938
:104DE000019308BD2C02030008B5024B1B681B6B26
:104DF000019308BD2C02030008B5024B1B68DB6859
:104E0000019308BD2802030008B5024B1B689B698B
:104E1000019308BD2802030008B5024B1B68DB693B
:104E2000019308BD2802030008B5024B1B681B6AEA
:104E3000019308BD2802030008B5024B1B685B6A9A
:104E4000019308BD2802030008B5024B1B689B6A4A
:104E5000019308BD2802030008B5024B1B68DB6AFA
:104E6000019308BD2802030008B5024B1B681B6BA9
:104E7000019308BD2802030008B5024B1B685B6B59
:104E8000019308BD2802030008B5024B1B681B6C88
:104E9000019308BD2802030008B5024B1B681B6D77
:104EA000019308BD2802030008B5024B1B685B692B
:104EB000019308BD6402030008B5024B1B689B68A0
:104EC000019308BD6802030008B5024B1B68DB684C
:104ED000019308BD6802030008B5024B1B68DB693B
:104EE000019308BD3002030008B5024B1B681B6A22
:104EF000019308BD3002030008B5024B1B68DB6854
:104F0000019308BD3C02030008B5024B1B681B69F6
:104F1000019308BD3C02030008B5024B1B685B69A6
:104F2000019308BD3C02030008B5024B1B689B6956
:104F3000019308BD3C02030008B5024B1B68DB6906
:104F4000019308BD3C02030008B5024B1B681B6AB5
:104F5000019308BD3C02030008B5024B1B689B6A25
:104F6000019308BD3C02030008B5024B1B681B6C93
:104F7000019308BD3C02030008B5024B1B681B6887
:104F8000019308BD4C02030008B5024B1B685B6827
:104F9000019308BD4C02030008B5024B1B681B6956
:104FA000019308BD4C02030008B5024B1B685B6906
:104FB000019308BD4C02030008B5024B1B689B69B6
:104FC000019308BD4C02030008B5024B1B68DB6966
:104FD000019308BD4C02030008B5024B1B681B6A15
:104FE000019308BD4C02030008B5024B1B685B68C7
:104FF000019308BD2002030008B5024B1B685B69E2
:10500000019308BD2002030008B5024B1B68DB6C4E
:10501000019308BD2002030008B5024B1B685B6DBD
:10502000019308BD2002030008B5034B1B68D3F8A9
:105030008830019308BD00002002030008B5034B2F
:105040001B68D3F89430019308BD000020020300D0
:1050500008B5034B1B68D3F8AC30019308BD0000C2
:105060002002030008B5024B1B685B68019308BD72
:105070004402030008B5024B1B689B68019308BDFE
:105080004402030008B5024B1B685B69019308BD2D
:105090004402030008B5024B1B681B6A019308BD5C
:1050A0004402030008B5024B1B68DB6B019308BD8B
:1050B0004402030008B5024B1B685B68019308BDFE
:1050C0004002030008B5024B1B689B68019308BDB2
:1050D0004002030008B5024B1B68DB68019308BD62
:1050E0004002030008B5024B1B681B69019308BD11
:1050F0004002030008B5024B1B685B69019308BDC1
:105100004002030008B5024B1B689B69019308BD70
:105110004002030008B5024B1B68DB69019308BD20
:105120004002030008B5024B1B681B6A019308BDCF
:105130004002030008B5024B1B681B6B019308BDBE
:105140004002030008B5024B1B685B6B019308BD6E
:105150004002030008B5024B1B681B6C019308BD9D
:105160004002030008B5024B1B685B6C019308BD4D
:105170004002030008B5024B1B681B68019308BD81
:105180001C02030008B5024B1B685B68019308BD55
:105190001C02030008B5024B1B689B68019308BD05
:1051A0001C02030008B5024B1B685B6A019308BD33
:1051B0001C02030008B5024B1B68DB6A019308BDA3
:1051C0001C02030008B5024B1B681B6B019308BD52
:1051D0001C02030008B5024B1B681B6C019308BD41
:1051E0001C02030008B5024B1B685B6C019308BDF1
:1051F0001C0203008A4210B507D0441A0298C01A54
:105200004443501A94FBF0F0184410BD0021FFF7FE
:10521000F3BE10B5836804460BB901F0DBF8C36830
:105220009847A3681BB10322214620469847204691
:105230001021BDE81040FEF732BF10B58368044668
:1052400013B1032201469847204610BD13B50B4603
:105250000246D0E900016C4684E8030093E80300AD
:1052600082E8030094E8030083E8030002B010BD65
:10527000024800230360FFF77FBD00BFB8E60320AC
:1052800070470020704710B510210446FEF707FF55
:10529000204610BD08B5FFF7F6FF08BD30B5002267
:1052A0004FF69C74026084808D888C800C688580A9
:1052B00004600A6030BD10B504460068FFF762FF65
:1052C000204610BD38B5C468F4B12378022B03D151
:1052D00004F10C00FFF7EFFF656835B12846FFF7D2
:1052E000ACFF10212846FEF7DAFEA56835B1284646
:1052F000FFF7A3FF10212846FEF7D1FE2046142118
:10530000BDE83840FEF7CBBE38BD10B588B00446C6
:10531000684600F01AFD694604A800F039FD04A8AB
:10532000A047044604A800F0C5FC684600F0C2FC93
:10533000204608B010BD1FB50023CDE9020101923F
:1053400010241A4669461846ADF80230ADF8004000
:10535000FFF788FE04B010BD0B6803604B68436024
:1053600013B15A6801325A60704737B5044668462F
:105370000D46FFF7F1FF009B019A23606260002356
:1053800001A801930093FEF73DFF35B1281DFEF7FC
:1053900039FF08212846FEF782FE204603B030BDC3
:1053A000826810B50AB901F015F8BDE81040C3686D
:1053B000184708B5006800F11001FFF7F1FF08BDBC
:1053C000826810B50AB901F005F8BDE81040C3685D
:1053D000184708B5006800F11001FFF7F1FF08BD9C
:1053E00038B500230446036010200D46FEF753FE37
:1053F00028B10123C0E90133024B0360C56020607E
:10540000204638BD2C730B0038B5002383608B68B1
:1054100004460D462BB102229847EB68E360AB6867
:10542000A360204638BD0000F0B589B00468684626
:10543000FFF734FF4FF00203D4E84F2F002A03D1C7
:10544000C4E8413F0029F7D125D104F10C05694694
:105450002846FFF723FFBFF35B8F01236370002013
:1054600004F10803BFF35B8F53E8006F43E80002C9
:10547000002AF9D1BFF35B8F6EB1FFF7C5FD78B19C
:1054800029463046FFF78CFF3046FFF7D6FE102145
:105490003046FEF704FE6846FFF70DFF09B0F0BD89
:1054A000314602A8FFF7B0FFE068B4F9105008B128
:1054B00001F090FD06901020ADF81C50FEF7EBFDBA
:1054C0000546E8B1002787601820FEF7E4FD044692
:1054D00088B10146876002A8FFF7B8FE049BA26866
:1054E000A360059B049206A9E268E36004F1100042
:1054F0000592FFF7D3FE084BEB60084B2C60AB60C6
:1055000006A8FFF7D8FE02A8FFF797FE002229465B
:105510000348FFF781FDB7E7B3530B0035560B0087
:1055200013520B002DE9F04F8BB005469DF850A0AB
:105530000F4690469946FFF7A5FD07AE834638BB58
:105540004FF62E73059005A93046ADF81830FFF7D9
:10555000A5FE1420FEF79FFD044648B10223037008
:105560000123C0E901BB437031460C30FFF796FEC2
:105570002846214640F8044BFFF732FF3046FFF73C
:105580009AFE05A8FFF797FE28460BB0BDE8F08FFE
:105590000C2300241420CDE908440793FEF77BFD7B
:1055A000014618B1C0E901440470447004A8039195
:1055B000FFF716FF1E4B08930820FEF76CFD04460C
:1055C00010B103A9FFF7C8FE00965FFA8AF34A46B6
:1055D000414638460994FFF75DFDB8B9039B5B78F7
:1055E00003F0FF0293B94FF69C7305A903A8059237
:1055F000ADF81830FFF718FF05A8FFF75CFE05A807
:105600000999FFF7B2FE06A8FEF7FCFD03A905A85D
:10561000FFF7A2FE059B069A2B606A60002306A88E
:1056200006930593FEF7EEFD04A8FEF7EBFDABE74E
:10563000B1560B00012AF8B5054603D10B6803608B
:105640000020F8BD022A10D0032AF9D10468002CEA
:10565000F6D004F11000FFF72EFE2046FFF7EDFD17
:1056600018212046FEF71BFDEAE718200E68FEF71A
:1056700012FD044650B13146FFF7C6FE3069B6F957
:10568000147008B101F0A6FC2061A7822C60D7E756
:1056900038B5002383608B6804460D462BB1022287
:1056A0009847EB68E360AB68A360204638BD000014
:1056B000F0B589B004460D4601A81146FFF755FE26
:1056C000A4B124B21DB1284601F084FC054601A80E
:1056D00003A90395ADF81040FFF7A6FE03A8FFF756
:1056E000EAFD02A8FEF78EFD09B0F0BD019D012381
:1056F000D5E84F2F002A03D1C5E8413F0029F7D153
:10570000EFD12B73BFF35B8F6B702B1DBFF35B8FE0
:1057100053E8006F43E80042002AF9D1BFF35B8FE2
:10572000002EDED02046FFF76FFC074660B105F182
:105730000C013046FFF744FE3046FFF77EFD102196
:105740003046FEF7ACFCCCE7314603A8FFF7A0FFDC
:105750002B7B8DF81C301020FEF79DFC0546D0B148
:1057600087601420FEF797FC044678B187600146F5
:1057700003A8FFF76BFD059BA268A360069B05923B
:10578000E268E3609DF81C3006922374064BEB60E0
:10579000064B2C60AB6003A8FFF74FFD00222946A3
:1057A0000348FFF739FCC7E7D3530B00B5570B008D
:1057B00013520B00012A70B5044603D10B68036035
:1057C000002070BD022A0CD0032AF9D10468002CF5
:1057D000F6D02046FFF731FD14212046FEF75FFC8E
:1057E000EEE714200E68FEF756FC054620B1314660
:1057F000FFF74EFF337C2B742560E1E70022406801
:105800001146FFF78FBC002240681146FFF79ABC93
:1058100040680022FFF78EBC4068002281F0010141
:10582000FFF778BC002340681A461946FFF76ABCA8
:10583000002340681A461946FFF75CBC0022406806
:105840001146FFF74FBC002240681146FFF73ABCF3
:10585000406800220221FFF73DBC002340681A4641
:10586000FFF728BC024B03225A60024A1A607047B5
:10587000BCE6032048730B007047F8B50646154692
:105880000C468F18BC4206D0336814F8011B9B6885
:1058900030469847F6E72846F8BD007C0022FFF71F
:1058A000C3BA007C0021FFF7C7BA007C0021FFF7D4
:1058B000CBBA007C0021FFF7CFBA007C0021FFF7B4
:1058C000D3BA10B514210446FEF7E9FB204610BDFB
:1058D00010B54FF47A73044608460021C4E9011359
:1058E000034B236020741146FFF7CEFA204610BD0B
:1058F00084730B000023007C1A461946FFF77CBA1C
:105900007FB500221423CDE90122ADF804300B78D5
:105910008DF808304B680393CB680493007C0B7AB6
:10592000059301A9FFF7B8FA07B05DF804FB1FB5AE
:10593000003B8DF800104FF06401039118BF012364
:10594000694601928DF80830FFF7DAFF05B05DF87F
:1059500004FB0123FFF7EBBF007C0022FFF754BAE2
:10596000007C0022FFF758BA0121FFF7F9BF70470A
:1059700010B518210446FEF792FB204610BDF0B585
:10598000037D062B8DB00E4600F104074FF0000496
:1059900012D000F1080515F8011D0A22304600F06A
:1059A0005AF9AF42044419D0002CF4D02E213046CD
:1059B00000F038F90444EEE72F236A4639460A20FE
:1059C0008DF80040FFF770FA684601F020FB33685D
:1059D0000246DB68694630469847044620460DB0CB
:1059E000F0BD000010B5054B0446112240F8043B01
:1059F000002101F0AFFA204610BD00BFAC730B00D0
:105A00000346074A10B543F8042B01F1100251F880
:105A1000044B43F8044B9142F9D10A781A7010BD37
:105A2000AC730B0010B59DF8084044EA032343EA29
:105A3000024242EA016104234160037510BD000087
:105A400007B5064B0360CB7800938B784A780978CA
:105A5000FFF7E8FF03B05DF804FB00BFAC730B0079
:105A6000014B024A1A607047C4E60320B8730B006A
:105A7000002340681A46FFF71DBB40680022022140
:105A8000FFF728BB002240681146FFF71BBB00222E
:105A900040681146FFF726BB002340681A461946A6
:105AA000FFF728BB002340681A461946FFF72ABBB8
:105AB00040680021FFF74EBB40680021FFF752BB52
:105AC0004068002281F00101FFF724BB40680022FA
:105AD000FFF730BB002240681146FFF733BB0022BE
:105AE00040681146FFF71EBB2DE9F04395B0144600
:105AF0000D460746FFF776FF00211C220DA80091F6
:105B000001F028FA40230C9320466B460CAA002192
:105B1000FFF7DAF9044600284BD1024601216868F4
:105B2000FFF7E0FA0221804622466868FFF7DAFABA
:105B3000009E81462146002E3BD0002939D1736852
:105B4000022B03D00A2B11D0F669F4E7B8F1000F4D
:105B5000FAD0716906A8043107ADFFF771FF0FCDC8
:105B60003C1D0FC42B6823704146EDE7B9F1000FCF
:105B7000EAD07469102201A801F0ECF906238DF82F
:105B8000143001AD04F108031834186859682A4626
:105B900003C20833A3421546F7D101A906A807ADF1
:105BA000FFF72EFF0FCD3C1D0FC42B682370494615
:105BB000CAE70098FFF780F9384615B0BDE8F083D2
:105BC000024B034A1A6000225A607047C8E603205D
:105BD000C4730B00F8B506460D468F180024BD426D
:105BE0000CD0336815F8011B9B6830469847031E9C
:105BF00001DB1C44F3E7002C08BF1C462046F8BD1F
:105C000013B50446084659B1019101F000FA236822
:105C10000199DB680246204602B0BDE810401847F3
:105C200002B010BD03689B68184738B50D210546C2
:105C3000FFF7F8FF0A2104462846FFF7F3FF204448
:105C400038BD38B50546FFF7DBFF04462846FFF7A9
:105C5000ECFF204438BD30B58BB00023012A8DF80D
:105C6000243098BF0A2209AC0D46B1FBF2F101FBCA
:105C7000125303F0FF03092B94BF30333733DBB2E9
:105C8000AA4204F8013DEFD92146FFF7B9FF0BB056
:105C900030BD0000014B00229A607047D0E603201F
:105CA00010B5044608462170FFF716F9002363601B
:105CB000204610BD10B504460068FFF763FA204681
:105CC00010BD10B50446006808B1FFF75BFA002369
:105CD000C4E90133236010BD38B504460D460068A1
:105CE0000131FFF757FA10B1C4E90005012038BDB2
:105CF00010B50368044623B143688B4201D30120E9
:105D000010BD2046FFF7E8FF0028F9D0A368002B5C
:105D1000F5D122681370F2E737B50D4611460192AE
:105D20000446FFF7E5FF019A28B92046FFF7C9FFAF
:105D3000204603B030BDA2602946206801F0FCF87F
:105D40002268A3680021D154F2E7002313B5C0E90B
:105D5000003304468360037341B10846019101F0AA
:105D600056F9019902462046FFF7D6FF204602B0B9
:105D700010BD884210B5044605D00B682BB18A6867
:105D80001946FFF7C9FF204610BDFFF79AFFFAE753
:105D900010B500230446C0E9003383600373FFF7A6
:105DA000E8FF204610BD08B582683AB921B10878ED
:105DB000B0FA80F0400900E0012008BD006809B990
:105DC0000078F5E701F0FCF8F2E700000EB470B5DA
:105DD00087B00BAD044655F8042B01922B460521E4
:105DE00004A80395FFF7DEF90B4906462046FFF7A6
:105DF000ACFF31462046FFF77BFF206830B1019AA7
:105E000003952B46711CFFF7CDF9A060204607B023
:105E1000BDE8704003B0704756710B0007B50B46E4
:105E200000210246009101208C21FFF711F903B0F7
:105E30005DF804FB01460020FFF7F0BF0020FFF7EC
:105E4000F9BF0000054B02221A60054B054A9A6013
:105E50000020C3E90000FFF7C7B800BFECE603204D
:105E6000E0E603200000FFFF024B1A68024B1A60B5
:105E7000704700BF9CE50320F0E6032070474174A3
:105E8000704708B5007CFFF767F820EAE07008BDAE
:105E900008B5007CFFF738F820EAE07008BD08B5C7
:105EA000007CFFF741F840EAE07008BD08B5007CCF
:105EB000FFF732F840EAE07008BD007CFFF73CB81D
:105EC00037B5457C04462DB1207C03B0BDE8304099
:105ED000FFF712B8007C0191FFF73EF80028019906
:105EE000F2DC284603B030BD10B514210446FEF79D
:105EF000D6F8204610BD000010B54FF47A73044662
:105F0000084611460022C4E90123044B2360012303
:105F100020746374FFF728F8204610BD1C740B0032
:105F2000417470477047704708B50021007CFFF747
:105F300043F840EAE07008BD08B50121007CFFF796
:105F40003BF840EAE07008BD08B5007CFFF72CF88C
:105F500020EAE07008BD08B5007CFFF71DF820EAD4
:105F6000E07008BD13B50446007C0191FFF71CF8F2
:105F70000028019901DC607C20B1207CFFF724F827
:105F800020EAE07002B010BD007CFFF725B810B524
:105F900014210446FEF783F8204610BD10B54FF4D7
:105FA0007A73044608460021C4E90113044B2360B8
:105FB0000123207463741146FEF7DEFF204610BDF6
:105FC0004C740B00007C0022FEF7DEBF10B51422DB
:105FD0000446002100F0BEFF204610BD10B50F4C56
:105FE00088B003A8FFF7F2FF2178BFF35B8F11F0B1
:105FF00001010FD120460191FEF753F8019948B1F4
:1060000003AA0748FFF7CAFF2046FEF74FF80548E6
:1060100000F08CFF024808B010BD00BFF4E603207A
:10602000F8E60320255F0B00002240681146FFF7C9
:1060300059B8002240681146FFF774B80022406842
:106040001146FFF77FB840680022FFF773B8406839
:10605000002281F00101FFF75DB8002340681A4675
:106060001946FFF74FB8002340681A461946FFF754
:1060700041B8002240681146FFF724B8406800226A
:106080000221FFF727B8002340681A46FFF712B82D
:10609000024B04225A60024A1A6070470CE7032040
:1060A0007C740B00014B1860704700BFA0E5032013
:1060B00008B50B4B43B1FFF791FF03681B69984785
:1060C000002801DDAFF30080064B43B100F05CF91E
:1060D00003681B699847002801DDAFF3008008BD05
:1060E000000000000000000008B5FFF7E1FFFEF728
:1060F00053FE014B186008BD28E703200548064AF7
:10610000064908B5121A00F017FF054B054A1A6038
:1061100008BD00BF00F4032004F403207C750B00CD
:1061200000F403201E1C279A07B5002300931A468B
:106130006FF07701FEF782FF03B05DF804FB00000B
:1061400007B543880A2B08D0502B0BD1094B1B688D
:106150004BB103B05DF804EB1847FFF7E5FF03B060
:106160005DF804FB002300931A466FF07701FEF7F9
:1061700065FFF4E718E7032010B512480021FFF788
:1061800031F8114B1A68114B9A42114B0CBF012286
:1061900000221A7001D0FFF7B1FFFEF7F5FD0446AB
:1061A00000F0E0FE0B4B13B12046AFF3008000215E
:1061B0000848FEF777FFBDE8104007480021FEF7CA
:1061C00033BF00BFA5600B0000F403201E1C279AFC
:1061D00014E703200000000041610B00232813B5E1
:1061E00002D9002002B010BDA0F10B03022B1AD877
:1061F000174C2178BFF35B8F11F001010BD12046C2
:106200000191FDF74EFF019928B11248FFF748FDB3
:106210002046FDF74BFF0F4B1878FEF765FE002870
:10622000DFD10120DEE7012809D800F06DF8002158
:10623000007CFEF721FE80F00100C0B2D2E70938F1
:106240000128EED800F0A0F8007CFEF77DFEF2E712
:106250001CE7032020E70320232838B504460D4619
:106260000AD8FF2908D0FFF7B9FF28B129462046F0
:10627000BDE83840FEF7A0BD38BD38B504460D4630
:10628000FEF7A2FDFF2810D0062804D84D2323FADC
:1062900000F0C30709D42046FFF7A0FF28B1294624
:1062A0002046BDE83840FEF797BD38BD0D2810B533
:1062B00004469CBF0E34A4B22046FFF78FFF50B1B6
:1062C00003212046FEF770FD032804D12046BDE8D7
:1062D0001040FEF789BD002010BD704738B520255D
:1062E000142304460360856005610649284600F0D2
:1062F0006FF804496060284600F06AF8E0602046C4
:1063000038BD00BFB0740B0030B50E4D2978BFF317
:106310005B8F11F0010487B011D12846FDF7C1FE53
:1063200068B101A8FFF7DAFF01AA21460648FFF786
:10633000CFFA2846FDF7BAFE044800F0F7FD024800
:1063400007B030BD2CE7032030E70320DB620B00F1
:106350007047000038B5044614252A46002100F095
:10636000F9FD25804025074925812846258200F032
:106370002FF804496060284600F02AF8E0602046C3
:1063800038BD00BFB0740B0030B50E4D2978BFF397
:106390005B8F11F0010487B011D12846FDF781FE13
:1063A00068B101A8FFF7D6FF01AA21460648FFF70A
:1063B000A3FD2846FDF77AFE044800F0B7FD024829
:1063C00007B030BD44E7032048E7032051630B00CA
:1063D000FDF763BE08B5FEF7EDFE000081F0004159
:1063E00002E000BF83F0004330B54FEA41044FEABA
:1063F000430594EA050F08BF90EA020F1FBF54EA55
:10640000000C55EA020C7FEA645C7FEA655C00F0F0
:10641000E2804FEA5454D4EB5555B8BF6D420CDDC1
:106420002C4480EA020281EA030382EA000083EA44
:10643000010180EA020281EA0303362D88BF30BDE4
:1064400011F0004F4FEA01314FF4801C4CEA11313A
:1064500002D0404261EB410113F0004F4FEA033399
:106460004CEA133302D0524263EB430394EA050F24
:1064700000F0A780A4F10104D5F1200E0DDB02FA93
:106480000EFC22FA05F2801841F1000103FA0EF227
:10649000801843FA05F359410EE0A5F120050EF1ED
:1064A000200E012A03FA0EFC28BF4CF0020C43FA1E
:1064B00005F3C01851EBE37101F0004507D54FF02B
:1064C000000EDCF1000C7EEB00006EEB0101B1F57B
:1064D000801F1BD3B1F5001F0CD349085FEA3000C1
:1064E0004FEA3C0C04F101044FEA445212F5800FCC
:1064F00080F09A80BCF1004F08BF5FEA500C50F169
:10650000000041EB045141EA050130BD5FEA4C0C4B
:10651000404141EB0101013C28BFB1F5801FE9D2A8
:1065200091F0000F04BF01460020B1FA81F308BFCB
:106530002033A3F10B03B3F120020CDA0C3208DD97
:1065400002F1140CC2F10C0201FA0CF021FA02F172
:106550000CE002F11402D8BFC2F1200C01FA02F1E2
:1065600020FA0CFCDCBF41EA0C019040E41AA2BF07
:1065700001EB0451294330BD6FEA04041F3C1CDACF
:106580000C340EDC04F11404C4F1200220FA04F0EF
:1065900001FA02F340EA030021FA04F345EA030199
:1065A00030BDC4F10C04C4F1200220FA02F001FA5B
:1065B00004F340EA0300294630BD21FA04F02946DD
:1065C00030BD94F0000F83F4801306BF81F4801176
:1065D0000134013D4EE77FEA645C18BF7FEA655CE9
:1065E00029D094EA050F08BF90EA020F05D054EABB
:1065F000000C04BF1946104630BD91EA030F1EBFC0
:106600000021002030BD5FEA545C05D140004941C3
:1066100028BF41F0004130BD14F580043CBF01F5B6
:10662000801130BD01F0004545F0FE4141F470019C
:106630004FF0000030BD7FEA645C1ABF1946104677
:106640007FEA655C1CBF0B46024650EA013406BF78
:1066500052EA033591EA030F41F4002130BD00BF37
:1066600090F0000F04BF0021704730B54FF48064F4
:1066700004F132044FF000054FF0000150E700BF75
:1066800090F0000F04BF0021704730B54FF48064D4
:1066900004F1320410F0004548BF40424FF00001C1
:1066A0003EE700BF42004FEAE2014FEA31014FEA04
:1066B00002701FBF12F07F4393F07F4F81F0605153
:1066C000704732F07F4208BF704793F07F4F04BF9E
:1066D00041F40021704730B54FF4607401F000457B
:1066E00021F000411CE700BF50EA010208BF7047DB
:1066F00030B54FF000050AE050EA010208BF7047CC
:1067000030B511F0004502D5404261EB41014FF434
:10671000806404F132045FEA915C3FF4D8AE4FF03C
:1067200003025FEADC0C18BF03325FEADC0C18BF1F
:10673000033202EBDC02C2F1200300FA03FC20FA70
:1067400002F001FA03FE40EA0E0021FA02F11444BD
:10675000BDE600BF70B54FF0FF0C4CF4E06C1CEAD6
:1067600011541DBF1CEA135594EA0C0F95EA0C0F47
:1067700000F0DEF82C4481EA030621EA4C5123EABA
:106780004C5350EA013518BF52EA033541F48011E9
:1067900043F4801338D0A0FB02CE4FF00005E1FB9C
:1067A00002E506F00042E0FB03E54FF00006E1FBE6
:1067B00003569CF0000F18BF4EF0010EA4F1FF0429
:1067C000B6F5007F64F5407404D25FEA4E0E6D4169
:1067D00046EB060642EAC62141EA55514FEAC5207A
:1067E00040EA5E504FEACE2EB4F1FD0C88BFBCF5F6
:1067F000E06F1ED8BEF1004F08BF5FEA500E50F1A7
:10680000000041EB045170BD06F0004646EA01016C
:1068100040EA020081EA0301B4EB5C04C2BFD4EB9E
:106820000C0541EA045170BD41F480114FF0000E97
:10683000013C00F3AB8014F1360FDEBF002001F005
:10684000004170BDC4F10004203C35DA0C341BDC7F
:1068500004F11404C4F1200500FA05F320FA04F051
:1068600001FA05F240EA020001F0004221F0004185
:1068700010EBD37021FA04F642EB06015EEA430EF8
:1068800008BF20EAD37070BDC4F10C04C4F1200528
:1068900000FA04F320FA05F001FA04F240EA0200DB
:1068A00001F0004110EBD37041F100015EEA430EAC
:1068B00008BF20EAD37070BDC4F1200500FA05F2CC
:1068C0004EEA020E20FA04F301FA05F243EA02034B
:1068D00021FA04F001F0004121FA04F220EA02005A
:1068E00000EBD3705EEA430E08BF20EAD37070BDA0
:1068F00094F0000F0FD101F00046400041EB010180
:1069000011F4801F08BF013CF7D041EA060195F061
:10691000000F18BF704703F00046520043EB03031B
:1069200013F4801F08BF013DF7D043EA0603704708
:1069300094EA0C0F0CEA135518BF95EA0C0F0CD013
:1069400050EA410618BF52EA4306D1D181EA030159
:1069500001F000414FF0000070BD50EA410606BF53
:106960001046194652EA430619D094EA0C0F02D198
:1069700050EA013613D195EA0C0F05D152EA0336DD
:106980001CBF104619460AD181EA030101F00041FB
:1069900041F0FE4141F470014FF0000070BD41F044
:1069A000FE4141F4780170BD70B54FF0FF0C4CF41E
:1069B000E06C1CEA11541DBF1CEA135594EA0C0F3D
:1069C00095EA0C0F00F0A7F8A4EB050481EA030E8A
:1069D00052EA03354FEA013100F088804FEA033371
:1069E0004FF0805545EA131343EA12634FEA02223F
:1069F00045EA111545EA10654FEA00260EF0004100
:106A00009D4208BF964244F1FD0404F5407402D251
:106A10005B084FEA3202B61A65EB03055B084FEAE2
:106A200032024FF480104FF4002CB6EB020E75EBDF
:106A3000030E22BFB61A754640EA0C005B084FEA07
:106A40003202B6EB020E75EB030E22BFB61A754684
:106A500040EA5C005B084FEA3202B6EB020E75EBCF
:106A6000030E22BFB61A754640EA9C005B084FEA47
:106A70003202B6EB020E75EB030E22BFB61A754654
:106A800040EADC0055EA060E18D04FEA051545EA43
:106A900016754FEA06164FEAC30343EA52734FEAEC
:106AA000C2025FEA1C1CC0D111F4801F0BD141EA65
:106AB00000014FF000004FF0004CB6E711F4801FCA
:106AC00004BF01430020B4F1FD0C88BFBCF5E06FAA
:106AD0003FF6AFAEB5EB030C04BFB6EB020C5FEABA
:106AE000500C50F1000041EB045170BD0EF0004E0F
:106AF0004EEA113114EB5C04C2BFD4EB0C0541EA41
:106B0000045170BD41F480114FF0000E013C90E63D
:106B100045EA060E8DE60CEA135594EA0C0F08BF01
:106B200095EA0C0F3FF43BAF94EA0C0F0AD150EA00
:106B300001347FF434AF95EA0C0F7FF425AF104693
:106B400019462CE795EA0C0F06D152EA03353FF4BB
:106B5000FDAE1046194622E750EA410618BF52EA38
:106B600043067FF4C5AE50EA41047FF40DAF52EA0C
:106B700043057FF4EBAE12E74A0011D212F5001282
:106B800011D20DD56FF47873B3EB62520ED44FEA85
:106B9000C12343F0004343EA505323FA02F0704705
:106BA0004FF00000704750EA013002D14FF0FF3043
:106BB00070474FF0000070477BB972B90029BEBF23
:106BC00000204FF0004106E008BF00281CBF6FF016
:106BD00000414FF0FF3000F0A7B9ADF1080C6DE9AE
:106BE00004CE002909DB002B1ADB00F035F8DDF8B4
:106BF00004E0DDE9022304B07047404261EB41014B
:106C0000002B1BDB00F028F8DDF804E0DDE90223AF
:106C100004B0404261EB4101524263EB43037047D1
:106C2000524263EB430300F017F8DDF804E0DDE9BE
:106C3000022304B0404261EB41017047524263EBD2
:106C4000430300F009F8DDF804E0DDE9022304B0B5
:106C5000524263EB430370472DE9F047089D044619
:106C60008E46002B4DD18A42944669D9B2FA82F2FF
:106C700052B101FA02F3C2F1200120FA01F10CFA3B
:106C800002FC41EA030E94404FEA1C48210CBEFB73
:106C9000F8F61FFA8CF708FB16E341EA034306FBFC
:106CA00007F199420AD91CEB030306F1FF3080F08B
:106CB0001F81994240F21C81023E63445B1AA4B2D8
:106CC000B3FBF8F008FB103344EA034400FB07F77A
:106CD000A7420AD91CEB040400F1FF3380F00A81BB
:106CE000A74240F207816444023840EA0640E41BB0
:106CF00000261DB1D4400023C5E900433146BDE85C
:106D0000F0878B4209D9002D00F0EF800026C5E9FD
:106D1000000130463146BDE8F087B3FA83F6002E15
:106D20004AD18B4202D3824200F2F980841A61EB8D
:106D3000030301209E46002DE0D0C5E9004EDDE7AB
:106D400002B9FFDEB2FA82F2002A40F09280A1EB93
:106D50000C014FEA1C471FFA8CFE0126200CB1FBE8
:106D6000F7F307FB131140EA01410EFB03F08842E1
:106D700008D91CEB010103F1FF3802D2884200F26E
:106D8000CB804346091AA4B2B1FBF7F007FB101100
:106D900044EA01440EFB00FEA64508D91CEB04049E
:106DA00000F1FF3102D2A64500F2BB800846A4EBF9
:106DB0000E0440EA03409CE7C6F12007B34022FAE4
:106DC00007FC4CEA030C20FA07F401FA06F31C4313
:106DD000F9404FEA1C4900FA06F3B1FBF9F8200C20
:106DE0001FFA8CFE09FB181140EA014108FB0EF066
:106DF000884202FA06F20BD91CEB010108F1FF3AB6
:106E000080F08880884240F28580A8F102086144C1
:106E1000091AA4B2B1FBF9F009FB101144EA0141CF
:106E200000FB0EFE8E4508D91CEB010100F1FF347A
:106E30006CD28E456AD90238614440EA0840A0FB12
:106E40000294A1EB0E01A142C846A64656D353D0E8
:106E50005DB1B3EB080261EB0E0101FA07F722FA0C
:106E600006F3F1401F43C5E9007100263146BDE835
:106E7000F087C2F12003D8400CFA02FC21FA03F398
:106E8000914001434FEA1C471FFA8CFEB3FBF7F019
:106E900007FB10360B0C43EA064300FB0EF69E423E
:106EA00004FA02F408D91CEB030300F1FF382FD2D7
:106EB0009E422DD9023863449B1B89B2B3FBF7F67F
:106EC00007FB163341EA034106FB0EF38B4208D958
:106ED0001CEB010106F1FF3816D28B4214D9023E99
:106EE0006144C91A46EA004638E72E46284605E7B7
:106EF0000646E3E61846F8E64B45A9D2B9EB020888
:106F000064EB0C0E0138A3E74646EAE7204694E717
:106F10004046D1E7D0467BE7023B614432E730464A
:106F200009E76444023842E7704700BF0023014686
:106F30001A46184600F074B80A44914200F1FF3333
:106F400000D1704710B511F8014B03F8014F914281
:106F5000F9D110BD02440346934200D1704703F8B3
:106F6000011BF9E738B5104B1D68AB6B0446B3B98C
:106F70001820FEF7FFF80246A86320B90B4B0C4817
:106F80004221FEF727F90B490B4BC0E900130B4BCD
:106F900083600B23838100210120C2E90401AB6BD4
:106FA00000221C615A6138BDA0E50320B1740B00BA
:106FB000C8740B000E33CDAB34126DE6ECDE050069
:106FC00010F8012B11F8013B012A28BF9A42F7D093
:106FD000D01A7047024B0146186800F003B800BF92
:106FE000A0E5032037B5044608460D4600F00FF82B
:106FF000421C114620460192FEF7E4F8044618B1FF
:10700000019A2946FFF798FF204603B030BD03469A
:1070100013F8012B002AFBD1181A01387047000021
:107020002DE9F843DFF8B8800646D8F800001F467F
:107030000D46914600F056F8254B1C6834B9254C96
:107040001C60254B13B11B68C4F8883063681F2B84
:1070500007DDD8F8000000F047F84FF0FF30BDE83A
:10706000F8834EB3D4F8880088B91C4B23B9D8F8FC
:10707000000000F038F8F0E74FF48470FEF77AF87B
:107080000028F4D00023C0E94033C4F888006368C6
:1070900040F8239001229A4000EB8301D0F80031A0
:1070A0001343C0F80031022EC1F8807002BFD0F83F
:1070B00004311343C0F804316368D8F800005A1C47
:1070C0000233626044F8235000F00EF80020C6E757
:1070D000E8E703205CE703200000000075510B0087
:1070E00004E60320704770477047000021400B0002
:1070F0005D400B0085400B0089400B000000000044
:1071000074727565007761746572696E6753746136
:1071100074654368616E6765640057617465726980
:107120006E672073797374656D207475726E656413
:10713000206F6E210066616C736500576174657223
:10714000696E672073797374656D207475726E65EE
:1071500064206F66662100496E76616C6964206305
:107160006F6D6D616E6420666F722066756E6374FC
:10717000696F6E207365745761746572696E6721FB
:1071800000252E316600736F696C5F315F72680095
:10719000736F696C5F325F726800736F696C5F3325
:1071A0005F726800736F696C5F345F726800736F41
:1071B000696C5F355F72680074656D7065726174CB
:1071C0007572650068756D696469747900626172D1
:1071D0006F6D65747269635F7072657373757265E4
:1071E0000065434F320054564F4300415149005708
:1071F000656C636F6D6520746F20746865205A61DB
:1072000066657220536D61727420477265656E68A1
:107210006F7573652050726F6A6563742120436FC8
:10722000757274657379206F6620494220436C61E2
:107230007373206F66203233203A2900424D453265
:10724000383020696E697469616C697A6174696F3C
:107250006E206661696C6564212057696C6C2072D0
:1072600065737461727420696E20333020736563B6
:107270006F6E647300424D4532383020696E697418
:1072800069616C697A6174696F6E20737563636597
:10729000737366756C2100454E5331363020696E2C
:1072A000697469616C697A6174696F6E206661697D
:1072B0006C6564212057696C6C207265737461720F
:1072C0007420696E203330207365636F6E647300C1
:1072D000454E5331363020696E697469616C697A44
:1072E0006174696F6E207375636365737366756C23
:1072F00021007365745761746572696E67000000E0
:10730000000000000000000021460B0067460B0053
:1073100000000000000000007F4C0B00754B0B00CC
:10732000AD4B0B00000000000000000081520B007C
:1073300087520B00C5520B0095520B0083520B0075
:1073400000000000000000005B580B0051580B00CB
:1073500047580B003D580B0031580B0025580B00C7
:10736000B15A0B00B95A0B0019580B0011580B00F9
:1073700007580B00FD570B00E95A0B0000000000F6
:107380000000000079580B00C3580B009B580B00FD
:107390007B580B00A3580B00AB580B00B3580B00E5
:1073A000BB580B0000000000000000007F590B00DC
:1073B0006F590B0071590B006170700000000000E4
:1073C00000000000715A0B007B5A0B00855A0B001D
:1073D0008F5A0B00995A0B00A55A0B00B15A0B009B
:1073E000B95A0B00C15A0B00CD5A0B00D55A0B00ED
:1073F000DF5A0B00E95A0B0025592D256D2D256408
:107400005425483A254D3A2553257A006173637413
:10741000696D650000000000000000007D5E0B004B
:10742000E95E0B00C15E0B00D55B0B00915E0B00AB
:10743000AD5E0B009F5E0B00BB5E0B007F5E0B0022
:10744000835E0B000000000000000000275F0B00BF
:107450008F5F0B00655F0B00D55B0B00575F0B0068
:10746000295F0B00395F0B00895F0B00495F0B0040
:10747000215F0B00000000000000000087600B008F
:107480007D600B0073600B0029600B0067600B00D0
:107490005B600B00B15A0B00B95A0B004F600B0038
:1074A00047600B003D600B0033600B00E95A0B0096
:1074B000005245454E54206D616C6C6F63207375AE
:1074C00063636565646564002F746D702F6A656E13
:1074D0006B696E732D4743432D31302D7069706594
:1074E0006C696E652D34385F323032303131323470
:1074F0005F313630363138303633392F7372632F7F
:107500006E65776C69622F6E65776C69622F6C6946
:1075100062632F7374646C69622F72616E642E6390
:107520000000000011450B0071520B0065580B0064
:10753000615A0B00C15B0B00955C0B00455E0B00B4
:10754000695E0B0091600B0000000000000000006D
:10755000040000001400000003000000474E550026
:10756000C7343140E10F0EEDCFF43BB92220747CDB
:04757000B27AEEA25B
:08757400E4F6FF7F01000000B6
:04757C00000000000B
:107580000C740B00A4E503200000000000000000C4
:1075900000000000000000000000000000000000EB
:1075A00000000000000000000000000000000000DB
:1075B00000000000000000000000000000000000CB
:1075C00000000000000000000000000000000000BB
:1075D00000000000000000000000000000000000AB
:0C75E0000000000000000000ECE70320A9
:1075EC00FFFFFFFF00000102030405060708090A5C
:1075FC000B0C0D0E0F101112131415161718191A57
:08760C001B1C1D1E1F2028009D
:04761400785634125E
:04000003B0004020E9
:00000001FF
