:02000002B0004C
:1040000000400B00BC660B00000006000C0005021F
:084010000401A30F00000000F1
:04401800D0610B0068
:1040200009480A49884208B505D0094A824202D0A7
:10403000121A02F011F80748074A0021121A02F07A
:1040400019F8014808BD00BF9CE5032028660B0055
:1040500008E6032008E60320EDE7032070B5074ECD
:10406000074C01F0EDFAA41BA4080025AC4200D1D6
:1040700070BD56F8043B98470135F7E7DC650B0047
:1040800000660B0000F094B808B500F04DF8BDE8EC
:10409000084001F08DBA00F0E3BD00F0E9BD007802
:1040A000B0FA80F0400970470123037070470000A8
:1040B00038B51549054601F004F9044668B10121F7
:1040C000062001F03EFB114B01221A7001F0EAF9C3
:1040D0000F4901F044F8002038BD0E49284601F090
:1040E000F0F848B12146062001F02BFB074B1C706D
:1040F00001F0D8F90849ECE701F0D4F9074901F0DB
:104100002EF84FF0FF30E7E7E4610B0080E6032074
:10411000E9610B0004620B000A620B0026620B00CF
:104120000023092200F01CBD70B51248124E134D39
:104130002DED028B00F0CAF90E48B0EE408A00F077
:1041400001FA0F48F0EE400AB0EE480A00F068FBB2
:1041500000F0C0FB044600F0BDFB001BB04205D8D8
:1041600000F0B8FB286000F00BFDF4E7BDEC028B1B
:1041700070BD00BF20E60320DF93040028E7032082
:1041800068E6032008B501F00DFB762201460648DB
:1041900000F0AAFA01F006FBBDE8084001465322F0
:1041A000024800F07DBB00BF20E6032068E6032044
:1041B00008B501F077F94FF4E13101F067F901F04A
:1041C00071F9424900F0CBFF0021132001F0A8FA59
:1041D0000021122001F0A4FA0021112001F0A0FA20
:1041E0000021102001F09CFA00210F2001F098FA24
:1041F0000620012101F094FA354800F045FA002824
:1042000057D101F04FF9334900F0A9FF47F2305080
:1042100000F04EFD01F077F82F4800F0F4FA002886
:104220004DD101F03FF92D4900F099FF47F2305090
:1042300000F03EFD01F067F82748022100F0A4FAE3
:1042400027492848FFF76CFF27492848FFF768FFF0
:1042500027492848FFF764FF27492848FFF760FFF0
:1042600027492848FFF75CFF274A2849284800F0DB
:1042700041FD002301222749274800F071FC27490E
:104280002748FFF74DFF27492748FFF749FF2749F0
:104290002748FFF745FF27492748FFF741FF2749F0
:1042A0002748FFF73DFFBDE8084026492648FFF7AD
:1042B00037BF01F0F7F8254900F051FFACE701F0F6
:1042C000F1F8234900F04BFFB6E700BF50620B0046
:1042D00020E603209D620B0068E60320F8620B00D5
:1042E00088E6032053630B0090E603205D630B0018
:1042F00098E6032067630B00A0E6032071630B00C0
:10430000A8E603207B630B0085630B00B1400B0024
:10431000C94C0B0080E6032091630B00B0E603203C
:104320009C630B0078E60320A8630B0018E60320CB
:10433000B1630B0060E60320C5630B0010E60320A9
:10434000CA630B0008E60320CF630B00D6620B00A4
:1043500031630B00F8B504461E4602230371406B1F
:1043600015460F4600F054FD94F83810606B00F0CD
:1043700081FD606B036839469B6898472E44B542BF
:10438000606B05D0036815F8011B9B689847F6E73A
:1043900000F078FD00B92071F8BDF8B504461E465E
:1043A00002230371406B0F46154600F031FD94F86F
:1043B0003810606B00F05EFD606B036839469B68E7
:1043C0009847606B00F05EFD88B9F2B294F838103F
:1043D000606B00F04CFD2E44B54206D0606B036864
:1043E0005B69984705F8010BF6E700232371F8BDD8
:1043F00013B5B6238DF8073003680DF107021C686A
:10440000E0210123A047642000F052FC02B010BD5F
:1044100038B50246044652F80C3B88215D681A23E1
:10442000A8472246A12152F8263B20465D68012379
:10443000A8472246E12152F8283B20465D68022326
:10444000A8472246E32152F82A3B20465D68012313
:10445000A8472246E42152F82C3B20465D680223FF
:10446000A8472246E52152F82E3B20465D680223EC
:10447000A8472246E72152F8303B20465D680123D9
:10448000A847A28D94F92D30120103F00F0302F416
:104490007F621343A385B4F92E30C3F30B13E38576
:1044A00038BD13B5036801AA5C68FA210323A0474D
:1044B0009DF805309DF804001B0143EA00339DF888
:1044C000060043EA101002B010BD000010B504460B
:1044D000FFF7E7FF2379FBB9A1899FED117A4B0024
:1044E000C1EB2012C3EBE001B4F90E30594302FBDB
:1044F00002F3B4F910201B1353439B1303EBE12386
:10450000A36003EB830380331B1207EE903AF8EEAF
:10451000E77A87EE870A10BD9FED020AFBE700BF2E
:104520000000C8420000000013B5036801AA5C68DF
:10453000FD210223A047BDF8040040BA80B202B0BA
:1045400010BD000038B50446FFF7C0FF2046FFF756
:10455000EBFF2379C3BBA168B4F92E20A1F59635F2
:10456000B4F92C100905C1EB803305FB123303F5B8
:104570008043DA1394F82A3094F930106B43DB123D
:104580006943891203F500434B439B12B4F9281089
:1045900003F500134B4303F500539B135343DA1306
:1045A00094F826105243D2114A43A3EB221323EA74
:1045B000E373B3F1C85FA8BF4FF0C8531B1300EEFD
:1045C000103ABAEECB0A38BD9FED010AFBE700BFF7
:1045D0000000000013B503680DF107025C680123B9
:1045E000A0479DF8070002B010BD2DE9F3411D461C
:1045F00003681746D3F804800DF10702012304462F
:104600000E46C0479DF8071021EA07031D432368A3
:104610008DF807501D680DF1070201233146204631
:10462000A84702B0BDE8F08101F003030322F421A2
:10463000FFF7DBBF4FF0000361F34713DBB2E0226B
:10464000F421FFF7D2BF4FF0000361F38403DBB224
:104650001C22F421FFF7C9BF01F007030722F22152
:10466000FFF7C3BF4FF0000361F38403DBB21C22EA
:10467000F521FFF7BABF4FF0000361F34713DBB238
:10468000E022F521FFF7B1BF38B5D0210446FFF78E
:10469000A1FF602825D125791DBB2046FFF7A8FE84
:1046A0004FF4967000F004FB2046FFF7B1FE0421A2
:1046B0002046FFF7C8FF04212046FFF7BBFF042177
:1046C0002046FFF7C9FF29462046FFF7CBFF02210E
:1046D0002046FFF7D0FF03212046FFF7A5FF2079F2
:1046E00038BD02232371FAE710B5034C046041631F
:1046F00080F8382010BD00BFDC630B00F8B505461C
:104700000F46017B806814461E4600F0B3FBA86884
:10471000036839469B6898472644B442A86805D088
:10472000036814F8011B9B689847F6E7BDE8F8405A
:1047300000F0A8BBF8B504460F46017B806815461B
:104740001E4600F097FBA068036839469B689847AF
:10475000A06800F097FBA0B9F2B2217BA06800F03E
:1047600086FB6E1EC5F10105A06803681B69AF19C1
:10477000984738B1A06803685B69984706F8010F4D
:10478000F2E700273846F8BD13B503688DF8071027
:104790005C680DF1070201231021A047142000F0EE
:1047A00087FA02B010BD13B5036841F002015C68DE
:1047B0008DF8071001230DF107021121A0471420E5
:1047C00000F076FA02B010BD37B5036801AA9D6803
:1047D000002102230446A84778B1BDF80430B3F5A0
:1047E000B07F0DD102212046FFF7CEFF20460021E9
:1047F000FFF7D9FF002003B030BD4FF0FF30FAE7DC
:104800006FF00100F7E710B50446806800F000FB88
:104810002046BDE81040FFF7D7BF000000000000B1
:1048200030B52DED028B044683B010EE100AB0EEC9
:10483000608A01F081F918A3D3E9002301F01EF882
:10484000134B002201F0D0F901F0E0FBDFED110A7B
:1048500028EE208A82B2BCEEC88A8DF8042018EEB9
:10486000103A9BB28DF806301B0A8DF8073023688A
:10487000120A5D688DF8052004230DEB0302132155
:104880002046A84703B0BDEC028B30BDAFF30080DB
:104890000000504000000044666666666612714083
:1048A00010B500244471024C04600273816010BD95
:1048B000EC630B0008B5024B1B685B6C019308BDF1
:1048C0004802030008B5024B1B685B68019308BDF2
:1048D0001802030008B5024B1B685B69019308BD11
:1048E0001802030008B5024B1B689B68019308BDC2
:1048F0002C02030008B5024B1B68DB68019308BD5E
:104900002C02030008B5024B1B681B69019308BD0C
:104910002C02030008B5024B1B68DB68019308BD3D
:104920002802030008B5024B1B689B69019308BD70
:104930002802030008B5024B1B68DB69019308BD20
:104940002802030008B5024B1B681B6A019308BDCF
:104950002802030008B5024B1B685B6A019308BD7F
:104960002802030008B5024B1B689B6A019308BD2F
:104970002802030008B5024B1B68DB6A019308BDDF
:104980002802030008B5024B1B681B6B019308BD8E
:104990002802030008B5024B1B685B6B019308BD3E
:1049A0002802030008B5024B1B681B6C019308BD6D
:1049B0002802030008B5024B1B681B6D019308BD5C
:1049C0002802030008B5024B1B685B69019308BD10
:1049D0006402030008B5024B1B689B68019308BD85
:1049E0006802030008B5024B1B68DB68019308BD31
:1049F0006802030008B5024B1B68DB69019308BD20
:104A00003002030008B5024B1B681B6A019308BD06
:104A10003002030008B5024B1B68DB68019308BD38
:104A20003C02030008B5024B1B681B69019308BDDB
:104A30003C02030008B5024B1B685B69019308BD8B
:104A40003C02030008B5024B1B689B69019308BD3B
:104A50003C02030008B5024B1B68DB69019308BDEB
:104A60003C02030008B5024B1B681B6A019308BD9A
:104A70003C02030008B5024B1B689B6A019308BD0A
:104A80003C02030008B5024B1B681B6C019308BD78
:104A90003C02030008B5024B1B681B68019308BD6C
:104AA0004C02030008B5024B1B685B68019308BD0C
:104AB0004C02030008B5024B1B681B69019308BD3B
:104AC0004C02030008B5024B1B685B69019308BDEB
:104AD0004C02030008B5024B1B689B69019308BD9B
:104AE0004C02030008B5024B1B68DB69019308BD4B
:104AF0004C02030008B5024B1B681B6A019308BDFA
:104B00004C02030008B5024B1B685B68019308BDAB
:104B10002002030008B5024B1B685B69019308BDC6
:104B20002002030008B5034B1B68D3F888300193BB
:104B300008BD00002002030008B5034B1B68D3F832
:104B40009430019308BD00002002030008B5034B18
:104B50001B68D3F8AC30019308BD000020020300AD
:104B600008B5024B1B681B68019308BD4402030093
:104B700008B5024B1B685B68019308BD4402030043
:104B800008B5024B1B689B68019308BD44020300F3
:104B900008B5024B1B68DB6B019308BD44020300A0
:104BA00008B5024B1B685B68019308BD4002030017
:104BB00008B5024B1B689B68019308BD40020300C7
:104BC00008B5024B1B68DB68019308BD4002030077
:104BD00008B5024B1B681B69019308BD4002030026
:104BE00008B5024B1B685B69019308BD40020300D6
:104BF00008B5024B1B689B69019308BD4002030086
:104C000008B5024B1B68DB69019308BD4002030035
:104C100008B5024B1B681B6A019308BD40020300E4
:104C200008B5024B1B681B6B019308BD40020300D3
:104C300008B5024B1B685B6B019308BD4002030083
:104C400008B5024B1B681B6C019308BD40020300B2
:104C500008B5024B1B685B6C019308BD4002030062
:104C600008B5024B1B681B68019308BD1C020300BA
:104C700008B5024B1B685B68019308BD1C0203006A
:104C800008B5024B1B689B68019308BD1C0203001A
:104C900008B5024B1B681B6C019308BD1C02030086
:104CA00008B5024B1B685B6C019308BD1C02030036
:104CB0000021FFF72FBF0000024800230360FFF729
:104CC000F9BD00BFB8E6032010B588B004466846B9
:104CD00000F0C9FA694604A800F0E8FA04A8A04761
:104CE000044604A800F074FA684600F071FA204601
:104CF00008B010BD1FB50023CDE9020101921024B8
:104D00001A4669461846ADF80230ADF80040FFF784
:104D10002FFF04B010BD002240681146FFF778BF96
:104D2000002240681146FFF783BF40680022FFF76A
:104D300077BF4068002281F00101FFF761BF0023C7
:104D400040681A461946FFF753BF002340681A46C9
:104D50001946FFF745BF002240681146FFF738BFEC
:104D6000002240681146FFF723BF4068002202215D
:104D7000FFF726BF002340681A46FFF711BF000067
:104D8000024B03225A60024A1A607047BCE60320B5
:104D900000640B007047F8B5064615460C468F18A0
:104DA000BC4206D0336814F8011B9B683046984714
:104DB000F6E72846F8BD007C0022FFF7C3BD007C63
:104DC0000021FFF7C7BD007C0021FFF7CBBD007CB1
:104DD0000021FFF7CFBD007C0021FFF7D3BD10B548
:104DE00014210446FFF759F9204610BD10B54FF4C1
:104DF0007A73044608460021C4E90113034B23607B
:104E000020741146FFF7CEFD204610BD3C640B0018
:104E10000023007C1A461946FFF77CBD7FB50022AF
:104E20001423CDE90122ADF804300B788DF8083059
:104E30004B680393CB680493007C0B7A059301A91C
:104E4000FFF7B8FD07B05DF804FB1FB5003B8DF818
:104E500000104FF06401039118BF012369460192CD
:104E60008DF80830FFF7DAFF05B05DF804FB012389
:104E7000FFF7EBBF007C0022FFF754BD007C00224F
:104E8000FFF758BD0121FFF7F9BF704710B5182192
:104E90000446FFF702F9204610BDF0B5037D062B4E
:104EA0008DB00E4600F104074FF0000412D000F15F
:104EB000080515F8011D0A22304600F05AF9AF42E4
:104EC000044419D0002CF4D02E21304600F038F9DB
:104ED0000444EEE72F236A4639460A208DF8004045
:104EE000FFF770FD684601F005F933680246DB689C
:104EF000694630469847044620460DB0F0BD000094
:104F000010B5054B0446112240F8043B002101F086
:104F1000B1F8204610BD00BF64640B000346074A89
:104F200010B543F8042B01F1100251F8044B43F87B
:104F3000044B9142F9D10A781A7010BD64640B00D9
:104F400010B59DF8084044EA032343EA024242EACE
:104F5000016104234160037510BD000007B5064BD5
:104F60000360CB7800938B784A780978FFF7E8FFE5
:104F700003B05DF804FB00BF64640B00014B024A00
:104F80001A607047C4E6032070640B000023406879
:104F90001A46FFF705BE406800220221FFF710BE47
:104FA000002240681146FFF703BE00224068114608
:104FB000FFF70EBE002340681A461946FFF710BEE1
:104FC000002340681A461946FFF712BE40680021C8
:104FD000FFF736BE40680021FFF73ABE4068002266
:104FE00081F00101FFF70CBE40680022FFF718BEF8
:104FF000002240681146FFF71BBE002240681146A0
:10500000FFF706BE2DE9F04395B014460D4607465E
:10501000FFF776FF00211C220DA8009101F02AF86D
:1050200040230C9320466B460CAA0021FFF7DAFCC4
:10503000044600284BD1024601216868FFF7C8FDED
:105040000221804622466868FFF7C2FD009E814625
:105050002146002E3BD0002939D17368022B03D0A2
:105060000A2B11D0F669F4E7B8F1000FFAD0716994
:1050700006A8043107ADFFF771FF0FCD3C1D0FC42B
:105080002B6823704146EDE7B9F1000FEAD074694F
:10509000102201A800F0EEFF06238DF8143001ADB8
:1050A00004F108031834186859682A4603C2083303
:1050B000A3421546F7D101A906A807ADFFF72EFFB9
:1050C0000FCD3C1D0FC42B6823704946CAE70098DA
:1050D000FFF780FC384615B0BDE8F083024B034A69
:1050E0001A6000225A607047C8E603207C640B00F7
:1050F000F8B506460D468F180024BD420CD0336823
:1051000015F8011B9B6830469847031E01DB1C44C1
:10511000F3E7002C08BF1C462046F8BD13B5044633
:10512000084659B1019100F0E5FF23680199DB6859
:105130000246204602B0BDE81040184702B010BD3C
:1051400003689B68184738B50D210546FFF7F8FF3F
:105150000A2104462846FFF7F3FF204438BD38B53E
:105160000546FFF7DBFF04462846FFF7ECFF204427
:1051700038BD30B58BB00023012A8DF8243098BF9C
:105180000A2209AC0D46B1FBF2F101FB125303F008
:10519000FF03092B94BF30333733DBB2AA4204F844
:1051A000013DEFD92146FFF7B9FF0BB030BD00003C
:1051B000014B00229A607047D0E6032010B50446E8
:1051C00008462170FFF716FC00236360204610BDDF
:1051D00010B504460068FFF74BFD204610BD10B522
:1051E0000446006808B1FFF743FD0023C4E901331A
:1051F000236010BD38B504460D4600680131FFF745
:105200003FFD10B1C4E90005012038BD10B50368A9
:10521000044623B143688B4201D3012010BD2046D0
:10522000FFF7E8FF0028F9D0A368002BF5D122682A
:105230001370F2E737B50D46114601920446FFF7A9
:10524000E5FF019A28B92046FFF7C9FF204603B0C1
:1052500030BDA2602946206800F0FEFE2268A368E7
:105260000021D154F2E7002313B5C0E9003304460E
:105270008360037341B10846019100F03BFF01993F
:1052800002462046FFF7D6FF204602B010BD8842F6
:1052900010B5044605D00B682BB18A681946FFF794
:1052A000C9FF204610BDFFF79AFFFAE710B50023AB
:1052B0000446C0E9003383600373FFF7E8FF20462C
:1052C00010BD08B582683AB921B10878B0FA80F00B
:1052D000400900E0012008BD006809B90078F5E741
:1052E00000F0FEFEF2E707B50B46002102460091F2
:1052F00001208C21FFF72AFC03B05DF804FB014676
:105300000020FFF7F0BF0020FFF7F9BF054B022296
:105310001A60054B054A9A600020C3E90000FFF7B8
:10532000F1BB00BFECE60320E0E603200000FFFF36
:10533000024B1A68024B1A60704700BF9CE50320BD
:10534000F0E6032070474174704708B5007CFFF712
:1053500091FB20EAE07008BD08B5007CFFF762FB16
:1053600020EAE07008BD08B5007CFFF76BFB40EA5F
:10537000E07008BD08B5007CFFF75CFB40EAE07018
:1053800008BD007CFFF766BB37B5457C04462DB1F0
:10539000207C03B0BDE83040FFF73CBB007C0191AE
:1053A000FFF768FB00280199F2DC284603B030BD06
:1053B00010B514210446FEF770FE204610BD000013
:1053C00010B54FF47A730446084611460022C4E92A
:1053D0000123044B2360012320746374FFF752FB05
:1053E000204610BDD4640B0041747047704770476D
:1053F00008B50021007CFFF76DFB40EAE07008BDB6
:1054000008B50121007CFFF765FB40EAE07008BDAC
:1054100008B5007CFFF756FB20EAE07008BD08B530
:10542000007CFFF747FB20EAE07008BD13B5044697
:10543000007C0191FFF746FB0028019901DC607CAC
:1054400020B1207CFFF74EFB20EAE07002B010BDD7
:10545000007CFFF74FBB10B514210446FEF71DFE7C
:10546000204610BD10B54FF47A730446084600215B
:10547000C4E90113044B23600123207463741146B3
:10548000FFF708FB204610BD04650B00007C0022DE
:10549000FFF708BB10B514220446002100F0EAFD16
:1054A000204610BD10B50F4C88B003A8FFF7F2FFDF
:1054B0002178BFF35B8F11F001010FD120460191DC
:1054C000FEF7EDFD019948B103AA0748FFF7CAFFAF
:1054D0002046FEF7E9FD054800F0B8FD024808B097
:1054E00010BD00BFF4E60320F8E60320ED530B00E7
:1054F000002240681146FFF76BBB0022406811464E
:10550000FFF786BB002240681146FFF791BB406859
:105510000022FFF785BB4068002281F00101FFF700
:105520006FBB002340681A461946FFF761BB002392
:1055300040681A461946FFF753BB002240681146DF
:10554000FFF736BB406800220221FFF739BB00237A
:1055500040681A46FFF724BB024B04225A60024AF5
:105560001A6070470CE7032034650B00014B18608C
:10557000704700BFA0E5032008B50B4B43B1FFF710
:1055800091FF03681B699847002801DDAFF3008095
:10559000064B43B100F046F903681B6998470028A1
:1055A00001DDAFF3008008BD000000000000000036
:1055B00008B5FFF7E1FFFFF78DF9014B186008BD53
:1055C00028E703200548064A064908B5121A00F0E4
:1055D00043FD054B054A1A6008BD00BF00F40320D7
:1055E00004F4032024660B0000F403201E1C279AF9
:1055F00007B5002300931A466FF07701FFF79CFA76
:1056000003B05DF804FB000007B543880A2B08D0FF
:10561000502B0BD1094B1B684BB103B05DF804EB69
:105620001847FFF7E5FF03B05DF804FB0023009384
:105630001A466FF07701FFF77FFAF4E718E70320C7
:1056400010B512480021FFF72BFB114B1A68114BC4
:105650009A42114B0CBF012200221A7001D0FFF7B1
:10566000B1FFFFF72FF9044600F00CFD0B4B13B10F
:105670002046AFF3008000210848FFF789FABDE813
:10568000104007480021FFF74DBA00BF6D550B00D1
:1056900000F403201E1C279A14E7032000000000DA
:1056A00009560B00232813B502D9002002B010BD03
:1056B000A0F10B03022B1AD8174C2178BFF35B8F94
:1056C00011F001010BD120460191FEF7E8FC019990
:1056D00028B11248FFF772FD2046FEF7E5FC0F4B9C
:1056E0001878FFF78FF90028DFD10120DEE70128C5
:1056F00009D800F057F80021007CFFF74BF980F043
:105700000100C0B2D2E709380128EED800F08AF8CB
:10571000007CFFF7A7F9F2E71CE7032020E703204E
:10572000232838B504460D460AD8FF2908D0FFF7CC
:10573000B9FF28B129462046BDE83840FFF7D2B866
:1057400038BD38B504460D46FFF7D4F8FF2810D011
:10575000062804D84D2323FA00F0C30709D42046B5
:10576000FFF7A0FF28B129462046BDE83840FFF7E3
:10577000C9B838BD7047000038B520251423044649
:105780000360856005610649284600F06FF804490A
:105790006060284600F06AF8E060204638BD00BF2F
:1057A00068650B0030B50E4D2978BFF35B8F11F0A3
:1057B000010487B011D12846FEF771FC68B101A839
:1057C000FFF7DAFF01AA21460648FFF70FFB28463C
:1057D000FEF76AFC044800F039FC024807B030BD0F
:1057E0002CE7032030E7032075570B0070470000BB
:1057F00038B5044614252A46002100F03BFC2580DC
:105800004025074925812846258200F02FF80449C4
:105810006060284600F02AF8E060204638BD00BFEE
:1058200068650B0030B50E4D2978BFF35B8F11F022
:10583000010487B011D12846FEF731FC68B101A8F8
:10584000FFF7D6FF01AA21460648FFF7B9FD284613
:10585000FEF72AFC044800F0F9FB024807B030BD0F
:1058600044E7032048E70320ED570B00FEF713BC85
:1058700081F0004102E000BF83F0004330B54FEA01
:1058800041044FEA430594EA050F08BF90EA020F6E
:105890001FBF54EA000C55EA020C7FEA645C7FEA01
:1058A000655C00F0E2804FEA5454D4EB5555B8BF24
:1058B0006D420CDD2C4480EA020281EA030382EA95
:1058C000000083EA010180EA020281EA0303362D27
:1058D00088BF30BD11F0004F4FEA01314FF4801CFA
:1058E0004CEA113102D0404261EB410113F0004F0C
:1058F0004FEA03334CEA133302D0524263EB4303C3
:1059000094EA050F00F0A780A4F10104D5F1200E60
:105910000DDB02FA0EFC22FA05F2801841F10001BB
:1059200003FA0EF2801843FA05F359410EE0A5F18F
:1059300020050EF1200E012A03FA0EFC28BF4CF0C0
:10594000020C43FA05F3C01851EBE37101F0004576
:1059500007D54FF0000EDCF1000C7EEB00006EEB83
:105960000101B1F5801F1BD3B1F5001F0CD349080D
:105970005FEA30004FEA3C0C04F101044FEA445264
:1059800012F5800F80F09A80BCF1004F08BF5FEAEB
:10599000500C50F1000041EB045141EA050130BDCB
:1059A0005FEA4C0C404141EB0101013C28BFB1F5DD
:1059B000801FE9D291F0000F04BF01460020B1FA28
:1059C00081F308BF2033A3F10B03B3F120020CDAFB
:1059D0000C3208DD02F1140CC2F10C0201FA0CF0D9
:1059E00021FA02F10CE002F11402D8BFC2F1200C3E
:1059F00001FA02F120FA0CFCDCBF41EA0C019040F4
:105A0000E41AA2BF01EB0451294330BD6FEA04043C
:105A10001F3C1CDA0C340EDC04F11404C4F1200227
:105A200020FA04F001FA02F340EA030021FA04F339
:105A300045EA030130BDC4F10C04C4F1200220FA90
:105A400002F001FA04F340EA0300294630BD21FACE
:105A500004F0294630BD94F0000F83F4801306BF94
:105A600081F480110134013D4EE77FEA645C18BF88
:105A70007FEA655C29D094EA050F08BF90EA020F1F
:105A800005D054EA000C04BF1946104630BD91EA17
:105A9000030F1EBF0021002030BD5FEA545C05D11A
:105AA0004000494128BF41F0004130BD14F5800459
:105AB0003CBF01F5801130BD01F0004545F0FE41CD
:105AC00041F470014FF0000030BD7FEA645C1ABF02
:105AD000194610467FEA655C1CBF0B46024650EA39
:105AE000013406BF52EA033591EA030F41F4002165
:105AF00030BD00BF90F0000F04BF0021704730B5EB
:105B00004FF4806404F132044FF000054FF00001BF
:105B100050E700BF90F0000F04BF0021704730B580
:105B20004FF4806404F1320410F0004548BF404255
:105B30004FF000013EE700BF42004FEAE2014FEAAA
:105B400031014FEA02701FBF12F07F4393F07F4F85
:105B500081F06051704732F07F4208BF704793F088
:105B60007F4F04BF41F40021704730B54FF460749B
:105B700001F0004521F000411CE700BF50EA01029E
:105B800008BF704730B54FF000050AE050EA010247
:105B900008BF704730B511F0004502D5404261EBB7
:105BA00041014FF4806404F132045FEA915C3FF4F8
:105BB000D8AE4FF003025FEADC0C18BF03325FEA95
:105BC000DC0C18BF033202EBDC02C2F1200300FA46
:105BD00003FC20FA02F001FA03FE40EA0E0021FA6B
:105BE00002F11444BDE600BF70B54FF0FF0C4CF459
:105BF000E06C1CEA11541DBF1CEA135594EA0C0F0B
:105C000095EA0C0F00F0DEF82C4481EA030621EA45
:105C10004C5123EA4C5350EA013518BF52EA033580
:105C200041F4801143F4801338D0A0FB02CE4FF032
:105C30000005E1FB02E506F00042E0FB03E54FF062
:105C40000006E1FB03569CF0000F18BF4EF0010E5A
:105C5000A4F1FF04B6F5007F64F5407404D25FEA56
:105C60004E0E6D4146EB060642EAC62141EA555109
:105C70004FEAC52040EA5E504FEACE2EB4F1FD0C4B
:105C800088BFBCF5E06F1ED8BEF1004F08BF5FEAC9
:105C9000500E50F1000041EB045170BD06F000467B
:105CA00046EA010140EA020081EA0301B4EB5C0428
:105CB000C2BFD4EB0C0541EA045170BD41F4801120
:105CC0004FF0000E013C00F3AB8014F1360FDEBF45
:105CD000002001F0004170BDC4F10004203C35DA21
:105CE0000C341BDC04F11404C4F1200500FA05F3A4
:105CF00020FA04F001FA05F240EA020001F0004245
:105D000021F0004110EBD37021FA04F642EB0601BA
:105D10005EEA430E08BF20EAD37070BDC4F10C04E4
:105D2000C4F1200500FA04F320FA05F001FA04F2A8
:105D300040EA020001F0004110EBD37041F1000194
:105D40005EEA430E08BF20EAD37070BDC4F120059F
:105D500000FA05F24EEA020E20FA04F301FA05F207
:105D600043EA020321FA04F001F0004121FA04F2AF
:105D700020EA020000EBD3705EEA430E08BF20EA7F
:105D8000D37070BD94F0000F0FD101F000464000B9
:105D900041EB010111F4801F08BF013CF7D041EA3B
:105DA000060195F0000F18BF704703F0004652003F
:105DB00043EB030313F4801F08BF013DF7D043EA10
:105DC0000603704794EA0C0F0CEA135518BF95EAC6
:105DD0000C0F0CD050EA410618BF52EA4306D1D14D
:105DE00081EA030101F000414FF0000070BD50EA6C
:105DF000410606BF1046194652EA430619D094EAF6
:105E00000C0F02D150EA013613D195EA0C0F05D1DF
:105E100052EA03361CBF104619460AD181EA030133
:105E200001F0004141F0FE4141F470014FF00000EB
:105E300070BD41F0FE4141F4780170BD70B54FF086
:105E4000FF0C4CF4E06C1CEA11541DBF1CEA135506
:105E500094EA0C0F95EA0C0F00F0A7F8A4EB0504E8
:105E600081EA030E52EA03354FEA013100F08880DF
:105E70004FEA03334FF0805545EA131343EA1263A8
:105E80004FEA022245EA111545EA10654FEA00265D
:105E90000EF000419D4208BF964244F1FD0404F516
:105EA000407402D25B084FEA3202B61A65EB030572
:105EB0005B084FEA32024FF480104FF4002CB6EB2F
:105EC000020E75EB030E22BFB61A754640EA0C00AF
:105ED0005B084FEA3202B6EB020E75EB030E22BFEF
:105EE000B61A754640EA5C005B084FEA3202B6EB30
:105EF000020E75EB030E22BFB61A754640EA9C00EF
:105F00005B084FEA3202B6EB020E75EB030E22BFBE
:105F1000B61A754640EADC0055EA060E18D04FEA7C
:105F2000051545EA16754FEA06164FEAC30343EA1C
:105F300052734FEAC2025FEA1C1CC0D111F4801FE9
:105F40000BD141EA00014FF000004FF0004CB6E7E2
:105F500011F4801F04BF01430020B4F1FD0C88BF81
:105F6000BCF5E06F3FF6AFAEB5EB030C04BFB6EB8C
:105F7000020C5FEA500C50F1000041EB045170BD7F
:105F80000EF0004E4EEA113114EB5C04C2BFD4EBAC
:105F90000C0541EA045170BD41F480114FF0000E30
:105FA000013C90E645EA060E8DE60CEA135594EAAC
:105FB0000C0F08BF95EA0C0F3FF43BAF94EA0C0FAF
:105FC0000AD150EA01347FF434AF95EA0C0F7FF424
:105FD00025AF104619462CE795EA0C0F06D152EA78
:105FE00003353FF4FDAE1046194622E750EA41065C
:105FF00018BF52EA43067FF4C5AE50EA41047FF46D
:106000000DAF52EA43057FF4EBAE12E74A0011D21E
:1060100012F5001211D20DD56FF47873B3EB625202
:106020000ED44FEAC12343F0004343EA505323FA0E
:1060300002F070474FF00000704750EA013002D183
:106040004FF0FF3070474FF00000704700230146CB
:106050001A46184600F056B80A44914200F1FF3340
:1060600000D1704710B511F8014B03F8014F914270
:10607000F9D110BD02440346934200D1704703F8A2
:10608000011BF9E738B5104B1D68AB6B0446B3B97B
:106090001820FEF7E5FD0246A86320B90B4B0C481B
:1060A0004221FEF7F5FD0B490B4BC0E900130B4BEA
:1060B00083600B23838100210120C2E90401AB6BC3
:1060C00000221C615A6138BDA0E5032069650B0000
:1060D00080650B000E33CDAB34126DE6ECDE0500AF
:1060E00010F8012B11F8013B012A28BF9A42F7D082
:1060F000D01A7047034613F8012B002AFBD1181A57
:10610000013870472DE9F843DFF8B8800646D8F823
:1061100000001F460D46914600F056F8254B1C68BE
:1061200034B9254C1C60254B13B11B68C4F888306A
:1061300063681F2B07DDD8F8000000F047F84FF028
:10614000FF30BDE8F8834EB3D4F8880088B91C4B03
:1061500023B9D8F8000000F038F8F0E74FF4847065
:10616000FEF77EFD0028F4D00023C0E94033C4F8D8
:106170008800636840F8239001229A4000EB830175
:10618000D0F800311343C0F80031022EC1F88070FE
:1061900002BFD0F804311343C0F804316368D8F863
:1061A00000005A1C0233626044F8235000F00EF8DD
:1061B0000020C6E7E8E703205CE7032000000000BA
:1061C000614C0B0004E603207047704770470000E5
:1061D00021400B005D400B0085400B0089400B0007
:1061E0000000000074727565005761746572696E15
:1061F000672073797374656D207475726E656420A1
:106200006F6E210066616C73650057617465726919
:106210006E672073797374656D207475726E656432
:10622000206F66662100496E76616C696420636F39
:106230006D6D616E6420666F722066756E63746941
:106240006F6E207365745761746572696E672100A3
:1062500057656C636F6D6520746F20746865205A94
:106260006166657220536D61727420477265656E58
:10627000686F7573652050726F6A6563742120437F
:106280006F757274657379206F6620494220436C84
:10629000617373206F66203233203A2900424D45E6
:1062A00032383020696E697469616C697A61746929
:1062B0006F6E206661696C6564212057696C6C2083
:1062C0007265737461727420696E20333020736557
:1062D000636F6E647300424D4532383020696E69D9
:1062E0007469616C697A6174696F6E207375636338
:1062F00065737366756C2100454E533136302069E5
:106300006E697469616C697A6174696F6E20666127
:10631000696C6564212057696C6C207265737461C7
:10632000727420696E203330207365636F6E6473FE
:1063300000454E5331363020696E697469616C696D
:106340007A6174696F6E20737563636573736675C4
:106350006C2100736F696C5F315F726800736F69E5
:106360006C5F325F726800736F696C5F335F726875
:1063700000736F696C5F345F726800736F696C5F84
:10638000355F7268007365745761746572696E6712
:106390000069735761746572696E670074656D702A
:1063A000657261747572650068756D696469747988
:1063B000006261726F6D65747269635F707265739C
:1063C000737572650065434F320054564F43004168
:1063D00051490000000000000000000055430B0080
:1063E0009B430B00000000000000000007480B006A
:1063F000FD460B0035470B000000000000000000C8
:10640000754D0B006B4D0B00614D0B00574D0B0094
:106410004B4D0B003F4D0B00CD4F0B00D54F0B00EC
:10642000334D0B002B4D0B00214D0B00174D0B0076
:1064300005500B000000000000000000954D0B000F
:10644000DF4D0B00B74D0B00974D0B00BF4D0B0000
:10645000C74D0B00CF4D0B00D74D0B0000000000C7
:10646000000000009B4E0B008B4E0B008D4E0B006E
:106470006170700000000000000000008D4F0B00F4
:10648000974F0B00A14F0B00AB4F0B00B54F0B000C
:10649000C14F0B00CD4F0B00D54F0B00DD4F0B0054
:1064A000E94F0B00F14F0B00FB4F0B0005500B00A9
:1064B00025592D256D2D25645425483A254D3A251D
:1064C00053257A0061736374696D650000000000F4
:1064D0000000000045530B00B1530B0089530B0023
:1064E000F1500B0059530B0075530B0067530B0011
:1064F00083530B0047530B004B530B00000000006D
:1065000000000000EF530B0057540B002D540B00FC
:10651000F1500B001F540B00F1530B0001540B0002
:1065200051540B0011540B00E9530B000000000004
:10653000000000004F550B0045550B003B550B006C
:10654000F1540B002F550B0023550B00CD4F0B00C2
:10655000D54F0B0017550B000F550B0005550B00C1
:10656000FB540B0005500B00005245454E54206D66
:10657000616C6C6F6320737563636565646564004B
:106580002F746D702F6A656E6B696E732D47434370
:106590002D31302D706970656C696E652D34385FF2
:1065A00032303230313132345F313630363138309A
:1065B0003633392F7372632F6E65776C69622F6E75
:1065C00065776C69622F6C6962632F7374646C69A0
:1065D000622F72616E642E630000000085410B0023
:1065E000B94C0B00814D0B007D4F0B00DD500B00B3
:1065F000B1510B000D530B0031530B0059550B00DB
:10660000040000001400000003000000474E550085
:10661000182E51A7FEC9EF3069380634A4B207EF2F
:046620008DC0F190A8
:046624000000000072
:10662800C4640B00A4E50320000000000000000083
:106638000000000000000000000000000000000052
:106648000000000000000000000000000000000042
:106658000000000000000000000000000000000032
:106668000000000000000000000000000000000022
:106678000000000000000000000000000000000012
:0C6688000000000000000000ECE7032010
:10669400FFFFFFFF00000102030405060708090AC3
:1066A4000B0C0D0E0F101112131415161718191ABE
:0866B4001B1C1D1E1F20280005
:0466BC0078563412C6
:04000003B0004020E9
:00000001FF
